{"abi":[{"type":"constructor","inputs":[{"name":"_usdc","type":"address","internalType":"address"},{"name":"_q","type":"string","internalType":"string"},{"name":"_end","type":"uint256","internalType":"uint256"},{"name":"_b","type":"uint256","internalType":"uint256"},{"name":"_initialLiquidity","type":"uint256","internalType":"uint256"}],"stateMutability":"nonpayable"},{"type":"function","name":"b","inputs":[],"outputs":[{"name":"","type":"uint256","internalType":"uint256"}],"stateMutability":"view"},{"type":"function","name":"buyNo","inputs":[{"name":"dQ","type":"uint256","internalType":"uint256"}],"outputs":[],"stateMutability":"nonpayable"},{"type":"function","name":"buyYes","inputs":[{"name":"dQ","type":"uint256","internalType":"uint256"}],"outputs":[],"stateMutability":"nonpayable"},{"type":"function","name":"claim","inputs":[],"outputs":[],"stateMutability":"nonpayable"},{"type":"function","name":"endTime","inputs":[],"outputs":[{"name":"","type":"uint256","internalType":"uint256"}],"stateMutability":"view"},{"type":"function","name":"marketState","inputs":[],"outputs":[{"name":"","type":"uint8","internalType":"uint8"}],"stateMutability":"view"},{"type":"function","name":"noShares","inputs":[{"name":"","type":"address","internalType":"address"}],"outputs":[{"name":"","type":"uint256","internalType":"uint256"}],"stateMutability":"view"},{"type":"function","name":"outcome","inputs":[],"outputs":[{"name":"","type":"uint8","internalType":"enum LMSRMarketUSDC.Outcome"}],"stateMutability":"view"},{"type":"function","name":"priceNo","inputs":[],"outputs":[{"name":"","type":"uint256","internalType":"uint256"}],"stateMutability":"view"},{"type":"function","name":"priceYes","inputs":[],"outputs":[{"name":"","type":"uint256","internalType":"uint256"}],"stateMutability":"view"},{"type":"function","name":"qNo","inputs":[],"outputs":[{"name":"","type":"uint256","internalType":"uint256"}],"stateMutability":"view"},{"type":"function","name":"qYes","inputs":[],"outputs":[{"name":"","type":"uint256","internalType":"uint256"}],"stateMutability":"view"},{"type":"function","name":"question","inputs":[],"outputs":[{"name":"","type":"string","internalType":"string"}],"stateMutability":"view"},{"type":"function","name":"quoteBuyNo","inputs":[{"name":"dQ","type":"uint256","internalType":"uint256"}],"outputs":[{"name":"","type":"uint256","internalType":"uint256"}],"stateMutability":"view"},{"type":"function","name":"quoteBuyYes","inputs":[{"name":"dQ","type":"uint256","internalType":"uint256"}],"outputs":[{"name":"","type":"uint256","internalType":"uint256"}],"stateMutability":"view"},{"type":"function","name":"quoteSellNo","inputs":[{"name":"dQ","type":"uint256","internalType":"uint256"}],"outputs":[{"name":"","type":"uint256","internalType":"uint256"}],"stateMutability":"view"},{"type":"function","name":"quoteSellYes","inputs":[{"name":"dQ","type":"uint256","internalType":"uint256"}],"outputs":[{"name":"","type":"uint256","internalType":"uint256"}],"stateMutability":"view"},{"type":"function","name":"resolve","inputs":[{"name":"o","type":"uint8","internalType":"enum LMSRMarketUSDC.Outcome"}],"outputs":[],"stateMutability":"nonpayable"},{"type":"function","name":"sellNo","inputs":[{"name":"dQ","type":"uint256","internalType":"uint256"}],"outputs":[],"stateMutability":"nonpayable"},{"type":"function","name":"sellYes","inputs":[{"name":"dQ","type":"uint256","internalType":"uint256"}],"outputs":[],"stateMutability":"nonpayable"},{"type":"function","name":"usdc","inputs":[],"outputs":[{"name":"","type":"address","internalType":"contract IERC20"}],"stateMutability":"view"},{"type":"function","name":"yesShares","inputs":[{"name":"","type":"address","internalType":"address"}],"outputs":[{"name":"","type":"uint256","internalType":"uint256"}],"stateMutability":"view"},{"type":"event","name":"Buy","inputs":[{"name":"user","type":"address","indexed":true,"internalType":"address"},{"name":"yes","type":"bool","indexed":false,"internalType":"bool"},{"name":"dQ","type":"uint256","indexed":false,"internalType":"uint256"},{"name":"costUSDC","type":"uint256","indexed":false,"internalType":"uint256"}],"anonymous":false},{"type":"event","name":"Claimed","inputs":[{"name":"user","type":"address","indexed":true,"internalType":"address"},{"name":"amountUSDC","type":"uint256","indexed":false,"internalType":"uint256"}],"anonymous":false},{"type":"event","name":"Resolved","inputs":[{"name":"o","type":"uint8","indexed":false,"internalType":"enum LMSRMarketUSDC.Outcome"}],"anonymous":false},{"type":"event","name":"Sell","inputs":[{"name":"user","type":"address","indexed":true,"internalType":"address"},{"name":"yes","type":"bool","indexed":false,"internalType":"bool"},{"name":"dQ","type":"uint256","indexed":false,"internalType":"uint256"},{"name":"refundUSDC","type":"uint256","indexed":false,"internalType":"uint256"}],"anonymous":false},{"type":"error","name":"SafeERC20FailedOperation","inputs":[{"name":"token","type":"address","internalType":"address"}]}],"bytecode":{"object":"0x60a0806040523461040557611a93803803809161001c8285610409565b8339810160a0828203126104055781516001600160a01b03811692908390036104055760208101516001600160401b03811161040557810182601f82011215610405578051906001600160401b0382116103295760405193610088601f8401601f191660200186610409565b8285526020838301011161040557815f9260208093018387015e840101526040810151608060608301519201519260ff196007541660075584156103da5782156103b157428211156103865767099e8db03256ce5d830283810467099e8db03256ce5d0361037257670de0b6b3a76400009004841061033d5760808590528051906001600160401b038211610329575f5490600182811c9216801561031f575b602083101461030b5781601f84931161029e575b50602090601f831160011461023b575f92610230575b50508160011b915f199060031b1c1916175f555b600155600255806101b4575b604051611666908161042d82396080518181816101ac01528181610620015281816107710152818161081001528181610a4a01528181610bdb0152610cff0152f35b5f602091604051838101916323b872dd60e01b83523360248301523060448301526064820152606481526101e9608482610409565b519082855af115610225575f513d61021c5750803b155b61020a5780610172565b635274afe760e01b5f5260045260245ffd5b60011415610200565b6040513d5f823e3d90fd5b015190505f80610152565b5f8080528281209350601f198516905b818110610286575090846001959493921061026e575b505050811b015f55610166565b01515f1960f88460031b161c191690555f8080610261565b9293602060018192878601518155019501930161024b565b5f80529091507f290decd9548b62a8d60345a988386fc84ba6bc95484008f6362f93160ef3e563601f840160051c81019160208510610301575b90601f859493920160051c01905b8181106102f3575061013c565b5f81558493506001016102e6565b90915081906102d8565b634e487b7160e01b5f52602260045260245ffd5b91607f1691610128565b634e487b7160e01b5f52604160045260245ffd5b60405162461bcd60e51b815260206004820152600d60248201526c39bab139b4b23c9e311536371960991b6044820152606490fd5b634e487b7160e01b5f52601160045260245ffd5b60405162461bcd60e51b8152602060048201526003602482015262195b9960ea1b6044820152606490fd5b60405162461bcd60e51b81526020600482015260016024820152603160f91b6044820152606490fd5b606460405162461bcd60e51b81526020600482015260046024820152637573646360e01b6044820152fd5b5f80fd5b601f909101601f19168101906001600160401b038211908210176103295760405256fe60806040526004361015610011575f80fd5b5f3560e01c8063061dd98d14610c9b578063089ef5e814610c8157806308fb1b7714610c5c57806311f957fd14610b4d57806327793f8714610b245780632acf1cd214610b075780633197cbb614610aea578063386278b614610aa95780633e094b8c14610a6e5780633e413bee14610a1e5780633fad9ae0146108af5780634df7e3d0146108925780634e71d92d146106f857806356bc793e146106b057806358c36e5c146105aa578063745917d814610556578063818fa9411461050e5780639223539b146104b8578063a0270dbc146102e3578063be0bfb9c1461027a578063bfc596011461025d5763c545ab541461010b575f80fd5b346102595760206003193601126102595760043560ff60075416600381101561022c571580610221575b61013e90610e11565b80151580610209575b610150906110f2565b61017d600354610177600454916101718561016b85846111bc565b94610ee8565b906111bc565b90610ee8565b335f52600660205260405f20610194838254610ee8565b90556101a282600454610ee8565b6004556101d081337f000000000000000000000000000000000000000000000000000000000000000061156a565b604051915f8352602083015260408201527f6ef2400e3559d8a9ff41d96e963ff23b7be0270529ffea64fee0747fb7f29e8560603392a2005b50335f90815260066020526040902054811115610147565b506001544210610135565b7f4e487b71000000000000000000000000000000000000000000000000000000005f52602160045260245ffd5b5f80fd5b34610259575f600319360112610259576020600354604051908152f35b34610259575f60031936011261025957610292610fc4565b670de0b6b3a764000003670de0b6b3a764000081116102b657602090604051908152f35b7f4e487b71000000000000000000000000000000000000000000000000000000005f52601160045260245ffd5b3461025957602060031936011261025957600435600381101561025957600154421061045a5760075460ff8116600381101561022c576103fc575f6001831480156103f0575b156103925761022c577fffffffffffffffffffffffffffffffffffffffffffffffffffffffffffffff001660ff8216176007556040517f5e186f09b9c93491f14e277eea7faa5de6a2d4bda75a79af7a3684fbfb42da6091819061038d9082610d90565b0390a1005b60646040517f08c379a000000000000000000000000000000000000000000000000000000000815260206004820152600360248201527f62616400000000000000000000000000000000000000000000000000000000006044820152fd5b50505f60028314610329565b60646040517f08c379a000000000000000000000000000000000000000000000000000000000815260206004820152600860248201527f7265736f6c7665640000000000000000000000000000000000000000000000006044820152fd5b60646040517f08c379a000000000000000000000000000000000000000000000000000000000815260206004820152600960248201527f6e6f7420656e64656400000000000000000000000000000000000000000000006044820152fd5b346102595760206003193601126102595760206104fa60043580151580610502575b6104e390610e76565b6101776003546101716004549361016b85846111bc565b604051908152f35b506004548111156104da565b346102595760206003193601126102595760043573ffffffffffffffffffffffffffffffffffffffff8116809103610259575f526005602052602060405f2054604051908152f35b346102595760206003193601126102595760206104fa6004358015158061059e575b61058190610e76565b610177600354916105996004549161016b83866111bc565b6111bc565b50600354811115610578565b346102595760206003193601126102595760043560ff60075416600381101561022c5715806106a5575b6105dd90610e11565b6105e8811515610e76565b61060d6003546101776004546106076106018683610edb565b846111bc565b926111bc565b610618811515610ef5565b6106448130337f00000000000000000000000000000000000000000000000000000000000000006113bb565b61065082600454610edb565b600455335f52600660205260405f2061066a838254610edb565b9055604051915f8352602083015260408201527fe417997ad0a1c7dd102d3158fdf23af437ae25ed1926b1b069dc8e436fd16fb660603392a2005b5060015442106105d4565b346102595760206003193601126102595760043573ffffffffffffffffffffffffffffffffffffffff8116809103610259575f526006602052602060405f2054604051908152f35b34610259575f6003193601126102595760ff60075416600381101561022c578015610834576001036107c357335f52600560205260405f2054801561073d8115611157565b335f5260056020525f6040812055620f42408202918204620f42401417156102b657670de0b6b3a7640000900461079581337f000000000000000000000000000000000000000000000000000000000000000061156a565b6040519081527fd8138f8a3f377c5259ca548e70e4c2de94f129f5a11036a15b69513cba2b426a60203392a2005b335f52600660205260405f205480156107dc8115611157565b335f5260066020525f6040812055620f42408202918204620f42401417156102b657670de0b6b3a7640000900461079581337f000000000000000000000000000000000000000000000000000000000000000061156a565b60646040517f08c379a000000000000000000000000000000000000000000000000000000000815260206004820152600a60248201527f756e7265736f6c766564000000000000000000000000000000000000000000006044820152fd5b34610259575f600319360112610259576020600254604051908152f35b34610259575f600319360112610259576040515f905f54918260011c60018416938415610a14575b6020821085146109e75781845260208401949081156109ae5750600114610952575b5090610909816040930382610da3565b7fffffffffffffffffffffffffffffffffffffffffffffffffffffffffffffffe0601f8351948593602085525180918160208701528686015e5f85828601015201168101030190f35b5f8080527f290decd9548b62a8d60345a988386fc84ba6bc95484008f6362f93160ef3e563939250905b808210610994575090915081016020016109096108f9565b91926001816020925483858801015201910190929161097c565b7fffffffffffffffffffffffffffffffffffffffffffffffffffffffffffffff0016855250151560051b820160200190506109096108f9565b7f4e487b71000000000000000000000000000000000000000000000000000000005f52602260045260245ffd5b90607f16906108d7565b34610259575f60031936011261025957602060405173ffffffffffffffffffffffffffffffffffffffff7f0000000000000000000000000000000000000000000000000000000000000000168152f35b346102595760206003193601126102595760206104fa600435610a92811515610e76565b610177600354916106076106016004549283610edb565b346102595760206003193601126102595760206104fa600435610acd811515610e76565b610177610add6003549283610edb565b61060760045480926111bc565b34610259575f600319360112610259576020600154604051908152f35b34610259575f600319360112610259576020600454604051908152f35b34610259575f60031936011261025957610b4960ff6007541660405191829182610d90565b0390f35b346102595760206003193601126102595760043560ff60075416600381101561022c571580610c51575b610b8090610e11565b80151580610c39575b610b92906110f2565b610bac6003546101776004546105998561016b83866111bc565b335f52600560205260405f20610bc3838254610ee8565b9055610bd182600354610ee8565b600355610bff81337f000000000000000000000000000000000000000000000000000000000000000061156a565b6040519160018352602083015260408201527f6ef2400e3559d8a9ff41d96e963ff23b7be0270529ffea64fee0747fb7f29e8560603392a2005b50335f90815260056020526040902054811115610b89565b506001544210610b77565b34610259575f600319360112610259576020610c766110c7565b60ff60405191168152f35b34610259575f6003193601126102595760206104fa610fc4565b346102595760206003193601126102595760043560ff60075416600381101561022c571580610d85575b610cce90610e11565b610cd9811515610e76565b610cec600354610177610add8483610edb565b610cf7811515610ef5565b610d238130337f00000000000000000000000000000000000000000000000000000000000000006113bb565b610d2f82600354610edb565b600355335f52600560205260405f20610d49838254610edb565b90556040519160018352602083015260408201527fe417997ad0a1c7dd102d3158fdf23af437ae25ed1926b1b069dc8e436fd16fb660603392a2005b506001544210610cc5565b91906020830192600382101561022c5752565b90601f7fffffffffffffffffffffffffffffffffffffffffffffffffffffffffffffffe0910116810190811067ffffffffffffffff821117610de457604052565b7f4e487b71000000000000000000000000000000000000000000000000000000005f52604160045260245ffd5b15610e1857565b60646040517f08c379a000000000000000000000000000000000000000000000000000000000815260206004820152600660248201527f636c6f73656400000000000000000000000000000000000000000000000000006044820152fd5b15610e7d57565b60646040517f08c379a000000000000000000000000000000000000000000000000000000000815260206004820152600260248201527f64510000000000000000000000000000000000000000000000000000000000006044820152fd5b919082018092116102b657565b919082039182116102b657565b15610efc57565b60646040517f08c379a000000000000000000000000000000000000000000000000000000000815260206004820152600460248201527f64757374000000000000000000000000000000000000000000000000000000006044820152fd5b8115610f64570490565b7f4e487b71000000000000000000000000000000000000000000000000000000005f52601260045260245ffd5b81810392915f1380158285131691841216176102b657565b9190915f83820193841291129080158216911516176102b657565b600354620f4240810290808204620f424014901517156102b657610feb6002548092610f5a565b9060045490620f4240820291808304620f424014901517156102b65761101761102d9161103893610f5a565b92838113156110b95761103261102d8280610f91565b611429565b93610f91565b90670de0b6b3a7640000810291818305670de0b6b3a764000014821517156102b65761106391610fa9565b908115610f64577fffffffffffffffffffffffffffffffffffffffffffffffffffffffffffffffff82147f80000000000000000000000000000000000000000000000000000000000000008214166102b6570590565b61103261102d858093610f91565b60ff60075416600381101561022c576110ed5760015442106110e857600190565b600190565b600290565b156110f957565b60646040517f08c379a000000000000000000000000000000000000000000000000000000000815260206004820152600660248201527f73686172657300000000000000000000000000000000000000000000000000006044820152fd5b1561115e57565b60646040517f08c379a000000000000000000000000000000000000000000000000000000000815260206004820152600660248201527f6e6f2077696e00000000000000000000000000000000000000000000000000006044820152fd5b90811580806113b3575b6113ac57620f42408302928304620f42401417156102b6576111eb6002548093610f5a565b90620f4240810290808204620f424014901517156102b65761102d9161123061102d61121a8661123695610f5a565b928381131561139f576110328196878093610f91565b90610fa9565b5f811315611341575f5b671bc16d674ec80000821015611335575b670de0b6b3a7640000821061130857906112e99291670de0b6b3a7640000825f0301917ffffffffffffffffffffffffffffffffffffffffffffffffff21f494c589c0000670de0b6b3a7640000848284010205670de0b6b3a764000085820205926002600360046005670de0b6b3a764000067099e8db03256ce5d818c8b02059a029a8a020505970595059205010101010101610fa9565b908181029181830414901517156102b657670de0b6b3a7640000900490565b907fffffffffffffffffffffffffffffffffffffffffffffffffffffffffffffffff9060011b9101611251565b600191821c9101611240565b60646040517f08c379a000000000000000000000000000000000000000000000000000000000815260206004820152600760248201527f6c6e20783c3d30000000000000000000000000000000000000000000000000006044820152fd5b6110328496878093610f91565b5050505f90565b5081156111c6565b90919273ffffffffffffffffffffffffffffffffffffffff6114279481604051957f23b872dd000000000000000000000000000000000000000000000000000000006020880152166024860152166044840152606483015260648252611422608483610da3565b6115c7565b565b7ffffffffffffffffffffffffffffffffffffffffffffffffdb731c958f34d94c181131561156557680755bf798b4a1bf1e58112156115075767b17217f7d1cf79ab670de0b6b3a76400008260601b050590670de0b6b3a76400006c0100000000000000000000000067b17217f7d1cf79ab840205029003670de0b6b3a76400008180020590670de0b6b3a7640000671bc16d674ec800008184020591818482020592600660786113b0858089890205988902050596059405910101010101905f81135f146114f6571b90565b5f8112611501575090565b5f031c90565b60646040517f08c379a000000000000000000000000000000000000000000000000000000000815260206004820152600c60248201527f657870206f766572666c6f7700000000000000000000000000000000000000006044820152fd5b505f90565b6114279273ffffffffffffffffffffffffffffffffffffffff604051937fa9059cbb000000000000000000000000000000000000000000000000000000006020860152166024840152604483015260448252611422606483610da3565b905f602091828151910182855af11561164e575f513d611645575073ffffffffffffffffffffffffffffffffffffffff81163b155b6116035750565b73ffffffffffffffffffffffffffffffffffffffff907f5274afe7000000000000000000000000000000000000000000000000000000005f521660045260245ffd5b600114156115fc565b6040513d5f823e3d90fdfea164736f6c634300081e000a","linkReferences":{}},"methodIdentifiers":{"b()":"4df7e3d0","buyNo(uint256)":"58c36e5c","buyYes(uint256)":"061dd98d","claim()":"4e71d92d","endTime()":"3197cbb6","marketState()":"08fb1b77","noShares(address)":"56bc793e","outcome()":"27793f87","priceNo()":"be0bfb9c","priceYes()":"089ef5e8","qNo()":"2acf1cd2","qYes()":"bfc59601","question()":"3fad9ae0","quoteBuyNo(uint256)":"3e094b8c","quoteBuyYes(uint256)":"386278b6","quoteSellNo(uint256)":"9223539b","quoteSellYes(uint256)":"745917d8","resolve(uint8)":"a0270dbc","sellNo(uint256)":"c545ab54","sellYes(uint256)":"11f957fd","usdc()":"3e413bee","yesShares(address)":"818fa941"},"id":32}