{"abi":[{"type":"constructor","inputs":[{"name":"_usdc","type":"address","internalType":"address"},{"name":"_title","type":"string","internalType":"string"},{"name":"_question","type":"string","internalType":"string"},{"name":"_end","type":"uint256","internalType":"uint256"},{"name":"_initialLiquidity","type":"uint256","internalType":"uint256"}],"stateMutability":"nonpayable"},{"type":"function","name":"buyNo","inputs":[{"name":"dQ","type":"uint256","internalType":"uint256"}],"outputs":[],"stateMutability":"nonpayable"},{"type":"function","name":"buyYes","inputs":[{"name":"dQ","type":"uint256","internalType":"uint256"}],"outputs":[],"stateMutability":"nonpayable"},{"type":"function","name":"claim","inputs":[],"outputs":[],"stateMutability":"nonpayable"},{"type":"function","name":"endTime","inputs":[],"outputs":[{"name":"","type":"uint256","internalType":"uint256"}],"stateMutability":"view"},{"type":"function","name":"k","inputs":[],"outputs":[{"name":"","type":"uint256","internalType":"uint256"}],"stateMutability":"view"},{"type":"function","name":"marketState","inputs":[],"outputs":[{"name":"","type":"uint8","internalType":"uint8"}],"stateMutability":"view"},{"type":"function","name":"noShares","inputs":[{"name":"","type":"address","internalType":"address"}],"outputs":[{"name":"","type":"uint256","internalType":"uint256"}],"stateMutability":"view"},{"type":"function","name":"outcome","inputs":[],"outputs":[{"name":"","type":"uint8","internalType":"enum ConstantProductMarket.Outcome"}],"stateMutability":"view"},{"type":"function","name":"priceNo","inputs":[],"outputs":[{"name":"","type":"uint256","internalType":"uint256"}],"stateMutability":"view"},{"type":"function","name":"priceYes","inputs":[],"outputs":[{"name":"","type":"uint256","internalType":"uint256"}],"stateMutability":"view"},{"type":"function","name":"qNo","inputs":[],"outputs":[{"name":"","type":"uint256","internalType":"uint256"}],"stateMutability":"view"},{"type":"function","name":"qYes","inputs":[],"outputs":[{"name":"","type":"uint256","internalType":"uint256"}],"stateMutability":"view"},{"type":"function","name":"question","inputs":[],"outputs":[{"name":"","type":"string","internalType":"string"}],"stateMutability":"view"},{"type":"function","name":"quoteBuyNo","inputs":[{"name":"dQ","type":"uint256","internalType":"uint256"}],"outputs":[{"name":"","type":"uint256","internalType":"uint256"}],"stateMutability":"view"},{"type":"function","name":"quoteBuyYes","inputs":[{"name":"dQ","type":"uint256","internalType":"uint256"}],"outputs":[{"name":"","type":"uint256","internalType":"uint256"}],"stateMutability":"view"},{"type":"function","name":"quoteSellNo","inputs":[{"name":"dQ","type":"uint256","internalType":"uint256"}],"outputs":[{"name":"","type":"uint256","internalType":"uint256"}],"stateMutability":"view"},{"type":"function","name":"quoteSellYes","inputs":[{"name":"dQ","type":"uint256","internalType":"uint256"}],"outputs":[{"name":"","type":"uint256","internalType":"uint256"}],"stateMutability":"view"},{"type":"function","name":"resolve","inputs":[{"name":"o","type":"uint8","internalType":"enum ConstantProductMarket.Outcome"}],"outputs":[],"stateMutability":"nonpayable"},{"type":"function","name":"sellNo","inputs":[{"name":"dQ","type":"uint256","internalType":"uint256"}],"outputs":[],"stateMutability":"nonpayable"},{"type":"function","name":"sellYes","inputs":[{"name":"dQ","type":"uint256","internalType":"uint256"}],"outputs":[],"stateMutability":"nonpayable"},{"type":"function","name":"shareScale","inputs":[],"outputs":[{"name":"","type":"uint256","internalType":"uint256"}],"stateMutability":"view"},{"type":"function","name":"title","inputs":[],"outputs":[{"name":"","type":"string","internalType":"string"}],"stateMutability":"view"},{"type":"function","name":"usdc","inputs":[],"outputs":[{"name":"","type":"address","internalType":"contract IERC20"}],"stateMutability":"view"},{"type":"function","name":"yesShares","inputs":[{"name":"","type":"address","internalType":"address"}],"outputs":[{"name":"","type":"uint256","internalType":"uint256"}],"stateMutability":"view"},{"type":"event","name":"Buy","inputs":[{"name":"user","type":"address","indexed":true,"internalType":"address"},{"name":"yes","type":"bool","indexed":false,"internalType":"bool"},{"name":"dQ","type":"uint256","indexed":false,"internalType":"uint256"},{"name":"costUSDC","type":"uint256","indexed":false,"internalType":"uint256"}],"anonymous":false},{"type":"event","name":"Claimed","inputs":[{"name":"user","type":"address","indexed":true,"internalType":"address"},{"name":"amountUSDC","type":"uint256","indexed":false,"internalType":"uint256"}],"anonymous":false},{"type":"event","name":"Resolved","inputs":[{"name":"o","type":"uint8","indexed":false,"internalType":"enum ConstantProductMarket.Outcome"}],"anonymous":false},{"type":"event","name":"Sell","inputs":[{"name":"user","type":"address","indexed":true,"internalType":"address"},{"name":"yes","type":"bool","indexed":false,"internalType":"bool"},{"name":"dQ","type":"uint256","indexed":false,"internalType":"uint256"},{"name":"refundUSDC","type":"uint256","indexed":false,"internalType":"uint256"}],"anonymous":false},{"type":"error","name":"SafeERC20FailedOperation","inputs":[{"name":"token","type":"address","internalType":"address"}]}],"bytecode":{"object":"0x60c06040523461042657611a33803803806100198161042a565b92833981019060a0818303126104265780516001600160a01b038116908190036104265760208201516001600160401b038111610426578361005c91840161044f565b604083015190936001600160401b0382116104265761007c91840161044f565b91608060608201519101519160ff196008541660085580156103fb5782156103ca574282111561039f5760805283516001600160401b0381116102b3575f54600181811c91168015610395575b602082101461029557601f8111610333575b50602094601f82116001146102d2579481929394955f926102c7575b50508160011b915f199060031b1c1916175f555b82516001600160401b0381116102b357600154600181811c911680156102a9575b602082101461029557601f8111610232575b506020601f82116001146101cf57819293945f926101c4575b50508160011b915f199060031b1c1916176001555b600255600355620f424060a05260405161159290816104a182396080518181816102000152818161068d015281816107b90152818161091301528181610c5c01528181610de90152610f0d015260a051816101380152f35b015190505f80610157565b601f1982169060015f52805f20915f5b81811061021a57509583600195969710610202575b505050811b0160015561016c565b01515f1960f88460031b161c191690555f80806101f4565b9192602060018192868b0151815501940192016101df565b60015f527fb10e2d527612073b26eecdfd717e6a320cf44b4afac2b0732d9fcbe2b7fa0cf6601f830160051c8101916020841061028b575b601f0160051c01905b818110610280575061013e565b5f8155600101610273565b909150819061026a565b634e487b7160e01b5f52602260045260245ffd5b90607f169061012c565b634e487b7160e01b5f52604160045260245ffd5b015190505f806100f7565b601f198216955f8052805f20915f5b88811061031b57508360019596979810610303575b505050811b015f5561010b565b01515f1960f88460031b161c191690555f80806102f6565b919260206001819286850151815501940192016102e1565b5f80527f290decd9548b62a8d60345a988386fc84ba6bc95484008f6362f93160ef3e563601f830160051c8101916020841061038b575b601f0160051c01905b81811061038057506100db565b5f8155600101610373565b909150819061036a565b90607f16906100c9565b60405162461bcd60e51b8152602060048201526003602482015262195b9960ea1b6044820152606490fd5b60405162461bcd60e51b81526020600482015260096024820152686c697175696469747960b81b6044820152606490fd5b606460405162461bcd60e51b81526020600482015260046024820152637573646360e01b6044820152fd5b5f80fd5b6040519190601f01601f191682016001600160401b038111838210176102b357604052565b81601f82011215610426578051906001600160401b0382116102b35761047e601f8301601f191660200161042a565b928284526020838301011161042657815f9260208093018386015e830101529056fe60806040526004361015610011575f80fd5b5f3560e01c8063061dd98d14610ea9578063089ef5e814610e8f57806308fb1b7714610e6a57806311f957fd14610d5b57806327793f8714610d365780632acf1cd214610d195780633197cbb614610cfc578063386278b614610cbb5780633e094b8c14610c805780633e413bee14610c305780633fad9ae014610b755780634a79d50c14610a3d5780634e71d92d1461076557806356bc793e1461071d57806358c36e5c14610617578063745917d8146105c3578063818fa9411461057b5780639223539b14610525578063a0270dbc14610350578063b4f40c6114610333578063be0bfb9c146102ca578063bfc59601146102ad578063c545ab541461015f5763e258249514610121575f80fd5b3461015b575f60031936011261015b5760206040517f00000000000000000000000000000000000000000000000000000000000000008152f35b5f80fd5b3461015b57602060031936011261015b5760043560ff600854166003811015610280571580610275575b61019290611067565b8015158061025d575b6101a4906112cb565b6101d16004546101cb600554916101c5856101bf8584611395565b9461113e565b90611395565b9061113e565b335f52600760205260405f206101e883825461113e565b90556101f68260055461113e565b60055561022481337f000000000000000000000000000000000000000000000000000000000000000061145b565b604051915f8352602083015260408201527f6ef2400e3559d8a9ff41d96e963ff23b7be0270529ffea64fee0747fb7f29e8560603392a2005b50335f9081526007602052604090205481111561019b565b506002544210610189565b7f4e487b71000000000000000000000000000000000000000000000000000000005f52602160045260245ffd5b3461015b575f60031936011261015b576020600454604051908152f35b3461015b575f60031936011261015b576102e26111fa565b670de0b6b3a764000003670de0b6b3a7640000811161030657602090604051908152f35b7f4e487b71000000000000000000000000000000000000000000000000000000005f52601160045260245ffd5b3461015b575f60031936011261015b576020600354604051908152f35b3461015b57602060031936011261015b57600435600381101561015b5760025442106104c75760085460ff8116600381101561028057610469575f60018314801561045d575b156103ff57610280577fffffffffffffffffffffffffffffffffffffffffffffffffffffffffffffff001660ff8216176008556040517f5e186f09b9c93491f14e277eea7faa5de6a2d4bda75a79af7a3684fbfb42da609181906103fa9082610f9e565b0390a1005b60646040517f08c379a000000000000000000000000000000000000000000000000000000000815260206004820152600360248201527f62616400000000000000000000000000000000000000000000000000000000006044820152fd5b50505f60028314610396565b60646040517f08c379a000000000000000000000000000000000000000000000000000000000815260206004820152600860248201527f7265736f6c7665640000000000000000000000000000000000000000000000006044820152fd5b60646040517f08c379a000000000000000000000000000000000000000000000000000000000815260206004820152600960248201527f6e6f7420656e64656400000000000000000000000000000000000000000000006044820152fd5b3461015b57602060031936011261015b5760206105676004358015158061056f575b610550906110cc565b6101cb6004546101c5600554936101bf8584611395565b604051908152f35b50600554811115610547565b3461015b57602060031936011261015b5760043573ffffffffffffffffffffffffffffffffffffffff811680910361015b575f526006602052602060405f2054604051908152f35b3461015b57602060031936011261015b5760206105676004358015158061060b575b6105ee906110cc565b6101cb60045491610606600554916101bf8386611395565b611395565b506004548111156105e5565b3461015b57602060031936011261015b5760043560ff600854166003811015610280571580610712575b61064a90611067565b6106558115156110cc565b61067a6004546101cb60055461067461066e8683611131565b84611395565b92611395565b61068581151561114b565b6106b18130337f00000000000000000000000000000000000000000000000000000000000000006113ed565b6106bd82600554611131565b600555335f52600760205260405f206106d7838254611131565b9055604051915f8352602083015260408201527fe417997ad0a1c7dd102d3158fdf23af437ae25ed1926b1b069dc8e436fd16fb660603392a2005b506002544210610641565b3461015b57602060031936011261015b5760043573ffffffffffffffffffffffffffffffffffffffff811680910361015b575f526007602052602060405f2054604051908152f35b3461015b575f60031936011261015b5760ff6008541660038110156102805780156109df576001036108eb57335f52600660205260405f20546107a9811515611330565b335f5260066020525f60408120557f00000000000000000000000000000000000000000000000000000000000000006040517f70a0823100000000000000000000000000000000000000000000000000000000815230600482015260208160248173ffffffffffffffffffffffffffffffffffffffff86165afa9081156108e0575f916108ae575b50600454905f93811515806108a5575b610883575b5050508161085591339061145b565b6040519081527fd8138f8a3f377c5259ca548e70e4c2de94f129f5a11036a15b69513cba2b426a60203392a2005b61085593945061089c9291610897916111b0565b6111c3565b91908380610846565b50821515610841565b90506020813d6020116108d8575b816108c960209383610fb1565b8101031261015b575183610831565b3d91506108bc565b6040513d5f823e3d90fd5b335f52600760205260405f2054610903811515611330565b335f5260076020525f60408120557f00000000000000000000000000000000000000000000000000000000000000006040517f70a0823100000000000000000000000000000000000000000000000000000000815230600482015260208160248173ffffffffffffffffffffffffffffffffffffffff86165afa9081156108e0575f916109ad575b50600554905f93811515806108a557610883575050508161085591339061145b565b90506020813d6020116109d7575b816109c860209383610fb1565b8101031261015b57518361098b565b3d91506109bb565b60646040517f08c379a000000000000000000000000000000000000000000000000000000000815260206004820152600a60248201527f756e7265736f6c766564000000000000000000000000000000000000000000006044820152fd5b3461015b575f60031936011261015b576040515f5f548060011c90600181168015610b6b575b602083108114610b3e57828552908115610afc5750600114610aa0575b610a9c83610a9081850382610fb1565b6040519182918261101f565b0390f35b5f8080527f290decd9548b62a8d60345a988386fc84ba6bc95484008f6362f93160ef3e563939250905b808210610ae257509091508101602001610a90610a80565b919260018160209254838588010152019101909291610aca565b7fffffffffffffffffffffffffffffffffffffffffffffffffffffffffffffff001660208086019190915291151560051b84019091019150610a909050610a80565b7f4e487b71000000000000000000000000000000000000000000000000000000005f52602260045260245ffd5b91607f1691610a63565b3461015b575f60031936011261015b576040515f6001548060011c90600181168015610c26575b602083108114610b3e57828552908115610afc5750600114610bc857610a9c83610a9081850382610fb1565b60015f9081527fb10e2d527612073b26eecdfd717e6a320cf44b4afac2b0732d9fcbe2b7fa0cf6939250905b808210610c0c57509091508101602001610a90610a80565b919260018160209254838588010152019101909291610bf4565b91607f1691610b9c565b3461015b575f60031936011261015b57602060405173ffffffffffffffffffffffffffffffffffffffff7f0000000000000000000000000000000000000000000000000000000000000000168152f35b3461015b57602060031936011261015b576020610567600435610ca48115156110cc565b6101cb6004549161067461066e6005549283611131565b3461015b57602060031936011261015b576020610567600435610cdf8115156110cc565b6101cb610cef6004549283611131565b6106746005548092611395565b3461015b575f60031936011261015b576020600254604051908152f35b3461015b575f60031936011261015b576020600554604051908152f35b3461015b575f60031936011261015b57610a9c60ff6008541660405191829182610f9e565b3461015b57602060031936011261015b5760043560ff600854166003811015610280571580610e5f575b610d8e90611067565b80151580610e47575b610da0906112cb565b610dba6004546101cb600554610606856101bf8386611395565b335f52600660205260405f20610dd183825461113e565b9055610ddf8260045461113e565b600455610e0d81337f000000000000000000000000000000000000000000000000000000000000000061145b565b6040519160018352602083015260408201527f6ef2400e3559d8a9ff41d96e963ff23b7be0270529ffea64fee0747fb7f29e8560603392a2005b50335f90815260066020526040902054811115610d97565b506002544210610d85565b3461015b575f60031936011261015b576020610e846112a0565b60ff60405191168152f35b3461015b575f60031936011261015b5760206105676111fa565b3461015b57602060031936011261015b5760043560ff600854166003811015610280571580610f93575b610edc90611067565b610ee78115156110cc565b610efa6004546101cb610cef8483611131565b610f0581151561114b565b610f318130337f00000000000000000000000000000000000000000000000000000000000000006113ed565b610f3d82600454611131565b600455335f52600660205260405f20610f57838254611131565b90556040519160018352602083015260408201527fe417997ad0a1c7dd102d3158fdf23af437ae25ed1926b1b069dc8e436fd16fb660603392a2005b506002544210610ed3565b9190602083019260038210156102805752565b90601f7fffffffffffffffffffffffffffffffffffffffffffffffffffffffffffffffe0910116810190811067ffffffffffffffff821117610ff257604052565b7f4e487b71000000000000000000000000000000000000000000000000000000005f52604160045260245ffd5b7fffffffffffffffffffffffffffffffffffffffffffffffffffffffffffffffe0601f602060409481855280519182918282880152018686015e5f8582860101520116010190565b1561106e57565b60646040517f08c379a000000000000000000000000000000000000000000000000000000000815260206004820152600660248201527f636c6f73656400000000000000000000000000000000000000000000000000006044820152fd5b156110d357565b60646040517f08c379a000000000000000000000000000000000000000000000000000000000815260206004820152600260248201527f64510000000000000000000000000000000000000000000000000000000000006044820152fd5b9190820180921161030657565b9190820391821161030657565b1561115257565b60646040517f08c379a000000000000000000000000000000000000000000000000000000000815260206004820152600460248201527f64757374000000000000000000000000000000000000000000000000000000006044820152fd5b8181029291811591840414171561030657565b81156111cd570490565b7f4e487b71000000000000000000000000000000000000000000000000000000005f52601260045260245ffd5b600454801580611296575b61128957600354906112178282611131565b90670de0b6b3a7640000820291808304670de0b6b3a764000014901517156103065760055461124591611131565b917f7fffffffffffffffffffffffffffffffffffffffffffffffffffffffffffffff8116810361030657611286926112809160011b90611131565b906111c3565b90565b506706f05b59d3b2000090565b5060055415611205565b60ff600854166003811015610280576112c65760025442106112c157600190565b600190565b600290565b156112d257565b60646040517f08c379a000000000000000000000000000000000000000000000000000000000815260206004820152600660248201527f73686172657300000000000000000000000000000000000000000000000000006044820152fd5b1561133757565b60646040517f08c379a000000000000000000000000000000000000000000000000000000000815260206004820152600660248201527f6e6f2077696e00000000000000000000000000000000000000000000000000006044820152fd5b908115806113e5575b6113df576113c86113cd916113c26113bc9460035495868092611131565b92611131565b906111b0565b6114b8565b90808211156113df576112869161113e565b50505f90565b50801561139e565b90919273ffffffffffffffffffffffffffffffffffffffff6114599481604051957f23b872dd000000000000000000000000000000000000000000000000000000006020880152166024860152166044840152606483015260648252611454608483610fb1565b6114fe565b565b6114599273ffffffffffffffffffffffffffffffffffffffff604051937fa9059cbb000000000000000000000000000000000000000000000000000000006020860152166024840152604483015260448252611454606483610fb1565b80156114f957600181018082116103065760011c815b8282106114da57505090565b9091506114f0826114eb81846111c3565b611131565b60011c906114ce565b505f90565b905f602091828151910182855af1156108e0575f513d61157c575073ffffffffffffffffffffffffffffffffffffffff81163b155b61153a5750565b73ffffffffffffffffffffffffffffffffffffffff907f5274afe7000000000000000000000000000000000000000000000000000000005f521660045260245ffd5b6001141561153356fea164736f6c634300081e000a","linkReferences":{}},"methodIdentifiers":{"buyNo(uint256)":"58c36e5c","buyYes(uint256)":"061dd98d","claim()":"4e71d92d","endTime()":"3197cbb6","k()":"b4f40c61","marketState()":"08fb1b77","noShares(address)":"56bc793e","outcome()":"27793f87","priceNo()":"be0bfb9c","priceYes()":"089ef5e8","qNo()":"2acf1cd2","qYes()":"bfc59601","question()":"3fad9ae0","quoteBuyNo(uint256)":"3e094b8c","quoteBuyYes(uint256)":"386278b6","quoteSellNo(uint256)":"9223539b","quoteSellYes(uint256)":"745917d8","resolve(uint8)":"a0270dbc","sellNo(uint256)":"c545ab54","sellYes(uint256)":"11f957fd","shareScale()":"e2582495","title()":"4a79d50c","usdc()":"3e413bee","yesShares(address)":"818fa941"},"id":32}