{"abi":[{"type":"constructor","inputs":[{"name":"_usdc","type":"address","internalType":"address"},{"name":"_title","type":"string","internalType":"string"},{"name":"_q","type":"string","internalType":"string"},{"name":"_end","type":"uint256","internalType":"uint256"},{"name":"_initialLiquidity","type":"uint256","internalType":"uint256"}],"stateMutability":"nonpayable"},{"type":"function","name":"b","inputs":[],"outputs":[{"name":"","type":"uint256","internalType":"uint256"}],"stateMutability":"view"},{"type":"function","name":"buyNo","inputs":[{"name":"dQ","type":"uint256","internalType":"uint256"}],"outputs":[],"stateMutability":"nonpayable"},{"type":"function","name":"buyYes","inputs":[{"name":"dQ","type":"uint256","internalType":"uint256"}],"outputs":[],"stateMutability":"nonpayable"},{"type":"function","name":"claim","inputs":[],"outputs":[],"stateMutability":"nonpayable"},{"type":"function","name":"endTime","inputs":[],"outputs":[{"name":"","type":"uint256","internalType":"uint256"}],"stateMutability":"view"},{"type":"function","name":"marketState","inputs":[],"outputs":[{"name":"","type":"uint8","internalType":"uint8"}],"stateMutability":"view"},{"type":"function","name":"noShares","inputs":[{"name":"","type":"address","internalType":"address"}],"outputs":[{"name":"","type":"uint256","internalType":"uint256"}],"stateMutability":"view"},{"type":"function","name":"outcome","inputs":[],"outputs":[{"name":"","type":"uint8","internalType":"enum LMSRMarket.Outcome"}],"stateMutability":"view"},{"type":"function","name":"priceNo","inputs":[],"outputs":[{"name":"","type":"uint256","internalType":"uint256"}],"stateMutability":"view"},{"type":"function","name":"priceYes","inputs":[],"outputs":[{"name":"","type":"uint256","internalType":"uint256"}],"stateMutability":"view"},{"type":"function","name":"qNo","inputs":[],"outputs":[{"name":"","type":"uint256","internalType":"uint256"}],"stateMutability":"view"},{"type":"function","name":"qYes","inputs":[],"outputs":[{"name":"","type":"uint256","internalType":"uint256"}],"stateMutability":"view"},{"type":"function","name":"question","inputs":[],"outputs":[{"name":"","type":"string","internalType":"string"}],"stateMutability":"view"},{"type":"function","name":"quoteBuyNo","inputs":[{"name":"dQ","type":"uint256","internalType":"uint256"}],"outputs":[{"name":"","type":"uint256","internalType":"uint256"}],"stateMutability":"view"},{"type":"function","name":"quoteBuyYes","inputs":[{"name":"dQ","type":"uint256","internalType":"uint256"}],"outputs":[{"name":"","type":"uint256","internalType":"uint256"}],"stateMutability":"view"},{"type":"function","name":"quoteSellNo","inputs":[{"name":"dQ","type":"uint256","internalType":"uint256"}],"outputs":[{"name":"","type":"uint256","internalType":"uint256"}],"stateMutability":"view"},{"type":"function","name":"quoteSellYes","inputs":[{"name":"dQ","type":"uint256","internalType":"uint256"}],"outputs":[{"name":"","type":"uint256","internalType":"uint256"}],"stateMutability":"view"},{"type":"function","name":"resolve","inputs":[{"name":"o","type":"uint8","internalType":"enum LMSRMarket.Outcome"}],"outputs":[],"stateMutability":"nonpayable"},{"type":"function","name":"sellNo","inputs":[{"name":"dQ","type":"uint256","internalType":"uint256"}],"outputs":[],"stateMutability":"nonpayable"},{"type":"function","name":"sellYes","inputs":[{"name":"dQ","type":"uint256","internalType":"uint256"}],"outputs":[],"stateMutability":"nonpayable"},{"type":"function","name":"title","inputs":[],"outputs":[{"name":"","type":"string","internalType":"string"}],"stateMutability":"view"},{"type":"function","name":"usdc","inputs":[],"outputs":[{"name":"","type":"address","internalType":"contract IERC20"}],"stateMutability":"view"},{"type":"function","name":"yesShares","inputs":[{"name":"","type":"address","internalType":"address"}],"outputs":[{"name":"","type":"uint256","internalType":"uint256"}],"stateMutability":"view"},{"type":"event","name":"Buy","inputs":[{"name":"user","type":"address","indexed":true,"internalType":"address"},{"name":"yes","type":"bool","indexed":false,"internalType":"bool"},{"name":"dQ","type":"uint256","indexed":false,"internalType":"uint256"},{"name":"costUSDC","type":"uint256","indexed":false,"internalType":"uint256"}],"anonymous":false},{"type":"event","name":"Claimed","inputs":[{"name":"user","type":"address","indexed":true,"internalType":"address"},{"name":"amountUSDC","type":"uint256","indexed":false,"internalType":"uint256"}],"anonymous":false},{"type":"event","name":"Resolved","inputs":[{"name":"o","type":"uint8","indexed":false,"internalType":"enum LMSRMarket.Outcome"}],"anonymous":false},{"type":"event","name":"Sell","inputs":[{"name":"user","type":"address","indexed":true,"internalType":"address"},{"name":"yes","type":"bool","indexed":false,"internalType":"bool"},{"name":"dQ","type":"uint256","indexed":false,"internalType":"uint256"},{"name":"refundUSDC","type":"uint256","indexed":false,"internalType":"uint256"}],"anonymous":false},{"type":"error","name":"SafeERC20FailedOperation","inputs":[{"name":"token","type":"address","internalType":"address"}]}],"bytecode":{"object":"0x60a06040523461045157611c058038038061001981610455565b92833981019060a0818303126104515780516001600160a01b038116908190036104515760208201516001600160401b038111610451578361005c91840161047a565b604083015190936001600160401b0382116104515761007c91840161047a565b91608060608201519101519160ff196008541660085580156104265782156103f557428211156103ca5760805283516001600160401b0381116102de575f54600181811c911680156103c0575b60208210146102c057601f811161035e575b50602094601f82116001146102fd579481929394955f926102f2575b50508160011b915f199060031b1c1916175f555b82516001600160401b0381116102de57600154600181811c911680156102d4575b60208210146102c057601f811161025d575b506020601f82116001146101fa57819293945f926101ef575b50508160011b915f199060031b1c1916176001555b600255670de0b6b3a76400008102908104670de0b6b3a7640000036101db5767099e8db03256ce5d900460035560405161173990816104cc82396080518181816101b70152818161062b0152818161077c0152818161081b01528181610ad901528181610c660152610d8a0152f35b634e487b7160e01b5f52601160045260245ffd5b015190505f80610157565b601f1982169060015f52805f20915f5b8181106102455750958360019596971061022d575b505050811b0160015561016c565b01515f1960f88460031b161c191690555f808061021f565b9192602060018192868b01518155019401920161020a565b60015f527fb10e2d527612073b26eecdfd717e6a320cf44b4afac2b0732d9fcbe2b7fa0cf6601f830160051c810191602084106102b6575b601f0160051c01905b8181106102ab575061013e565b5f815560010161029e565b9091508190610295565b634e487b7160e01b5f52602260045260245ffd5b90607f169061012c565b634e487b7160e01b5f52604160045260245ffd5b015190505f806100f7565b601f198216955f8052805f20915f5b8881106103465750836001959697981061032e575b505050811b015f5561010b565b01515f1960f88460031b161c191690555f8080610321565b9192602060018192868501518155019401920161030c565b5f80527f290decd9548b62a8d60345a988386fc84ba6bc95484008f6362f93160ef3e563601f830160051c810191602084106103b6575b601f0160051c01905b8181106103ab57506100db565b5f815560010161039e565b9091508190610395565b90607f16906100c9565b60405162461bcd60e51b8152602060048201526003602482015262195b9960ea1b6044820152606490fd5b60405162461bcd60e51b81526020600482015260096024820152686c697175696469747960b81b6044820152606490fd5b606460405162461bcd60e51b81526020600482015260046024820152637573646360e01b6044820152fd5b5f80fd5b6040519190601f01601f191682016001600160401b038111838210176102de57604052565b81601f82011215610451578051906001600160401b0382116102de576104a9601f8301601f1916602001610455565b928284526020838301011161045157815f9260208093018386015e830101529056fe60806040526004361015610011575f80fd5b5f3560e01c8063061dd98d14610d26578063089ef5e814610d0c57806308fb1b7714610ce757806311f957fd14610bd857806327793f8714610bb35780632acf1cd214610b965780633197cbb614610b79578063386278b614610b385780633e094b8c14610afd5780633e413bee14610aad5780633fad9ae0146109f25780634a79d50c146108ba5780634df7e3d01461089d5780634e71d92d1461070357806356bc793e146106bb57806358c36e5c146105b5578063745917d814610561578063818fa941146105195780639223539b146104c3578063a0270dbc146102ee578063be0bfb9c14610285578063bfc59601146102685763c545ab5414610116575f80fd5b346102645760206003193601126102645760043560ff60085416600381101561023757158061022c575b61014990610ee4565b80151580610214575b61015b906111c5565b6101886004546101826005549161017c85610176858461128f565b94610fbb565b9061128f565b90610fbb565b335f52600760205260405f2061019f838254610fbb565b90556101ad82600554610fbb565b6005556101db81337f000000000000000000000000000000000000000000000000000000000000000061163d565b604051915f8352602083015260408201527f6ef2400e3559d8a9ff41d96e963ff23b7be0270529ffea64fee0747fb7f29e8560603392a2005b50335f90815260076020526040902054811115610152565b506002544210610140565b7f4e487b71000000000000000000000000000000000000000000000000000000005f52602160045260245ffd5b5f80fd5b34610264575f600319360112610264576020600454604051908152f35b34610264575f6003193601126102645761029d611097565b670de0b6b3a764000003670de0b6b3a764000081116102c157602090604051908152f35b7f4e487b71000000000000000000000000000000000000000000000000000000005f52601160045260245ffd5b346102645760206003193601126102645760043560038110156102645760025442106104655760085460ff8116600381101561023757610407575f6001831480156103fb575b1561039d57610237577fffffffffffffffffffffffffffffffffffffffffffffffffffffffffffffff001660ff8216176008556040517f5e186f09b9c93491f14e277eea7faa5de6a2d4bda75a79af7a3684fbfb42da609181906103989082610e1b565b0390a1005b60646040517f08c379a000000000000000000000000000000000000000000000000000000000815260206004820152600360248201527f62616400000000000000000000000000000000000000000000000000000000006044820152fd5b50505f60028314610334565b60646040517f08c379a000000000000000000000000000000000000000000000000000000000815260206004820152600860248201527f7265736f6c7665640000000000000000000000000000000000000000000000006044820152fd5b60646040517f08c379a000000000000000000000000000000000000000000000000000000000815260206004820152600960248201527f6e6f7420656e64656400000000000000000000000000000000000000000000006044820152fd5b346102645760206003193601126102645760206105056004358015158061050d575b6104ee90610f49565b61018260045461017c60055493610176858461128f565b604051908152f35b506005548111156104e5565b346102645760206003193601126102645760043573ffffffffffffffffffffffffffffffffffffffff8116809103610264575f526006602052602060405f2054604051908152f35b34610264576020600319360112610264576020610505600435801515806105a9575b61058c90610f49565b610182600454916105a460055491610176838661128f565b61128f565b50600454811115610583565b346102645760206003193601126102645760043560ff6008541660038110156102375715806106b0575b6105e890610ee4565b6105f3811515610f49565b61061860045461018260055461061261060c8683610fae565b8461128f565b9261128f565b610623811515610fc8565b61064f8130337f000000000000000000000000000000000000000000000000000000000000000061148e565b61065b82600554610fae565b600555335f52600760205260405f20610675838254610fae565b9055604051915f8352602083015260408201527fe417997ad0a1c7dd102d3158fdf23af437ae25ed1926b1b069dc8e436fd16fb660603392a2005b5060025442106105df565b346102645760206003193601126102645760043573ffffffffffffffffffffffffffffffffffffffff8116809103610264575f526007602052602060405f2054604051908152f35b34610264575f6003193601126102645760ff60085416600381101561023757801561083f576001036107ce57335f52600660205260405f20548015610748811561122a565b335f5260066020525f6040812055620f42408202918204620f42401417156102c157670de0b6b3a764000090046107a081337f000000000000000000000000000000000000000000000000000000000000000061163d565b6040519081527fd8138f8a3f377c5259ca548e70e4c2de94f129f5a11036a15b69513cba2b426a60203392a2005b335f52600760205260405f205480156107e7811561122a565b335f5260076020525f6040812055620f42408202918204620f42401417156102c157670de0b6b3a764000090046107a081337f000000000000000000000000000000000000000000000000000000000000000061163d565b60646040517f08c379a000000000000000000000000000000000000000000000000000000000815260206004820152600a60248201527f756e7265736f6c766564000000000000000000000000000000000000000000006044820152fd5b34610264575f600319360112610264576020600354604051908152f35b34610264575f600319360112610264576040515f5f548060011c906001811680156109e8575b6020831081146109bb57828552908115610979575060011461091d575b6109198361090d81850382610e2e565b60405191829182610e9c565b0390f35b5f8080527f290decd9548b62a8d60345a988386fc84ba6bc95484008f6362f93160ef3e563939250905b80821061095f5750909150810160200161090d6108fd565b919260018160209254838588010152019101909291610947565b7fffffffffffffffffffffffffffffffffffffffffffffffffffffffffffffff001660208086019190915291151560051b8401909101915061090d90506108fd565b7f4e487b71000000000000000000000000000000000000000000000000000000005f52602260045260245ffd5b91607f16916108e0565b34610264575f600319360112610264576040515f6001548060011c90600181168015610aa3575b6020831081146109bb578285529081156109795750600114610a45576109198361090d81850382610e2e565b60015f9081527fb10e2d527612073b26eecdfd717e6a320cf44b4afac2b0732d9fcbe2b7fa0cf6939250905b808210610a895750909150810160200161090d6108fd565b919260018160209254838588010152019101909291610a71565b91607f1691610a19565b34610264575f60031936011261026457602060405173ffffffffffffffffffffffffffffffffffffffff7f0000000000000000000000000000000000000000000000000000000000000000168152f35b34610264576020600319360112610264576020610505600435610b21811515610f49565b6101826004549161061261060c6005549283610fae565b34610264576020600319360112610264576020610505600435610b5c811515610f49565b610182610b6c6004549283610fae565b610612600554809261128f565b34610264575f600319360112610264576020600254604051908152f35b34610264575f600319360112610264576020600554604051908152f35b34610264575f6003193601126102645761091960ff6008541660405191829182610e1b565b346102645760206003193601126102645760043560ff600854166003811015610237571580610cdc575b610c0b90610ee4565b80151580610cc4575b610c1d906111c5565b610c376004546101826005546105a485610176838661128f565b335f52600660205260405f20610c4e838254610fbb565b9055610c5c82600454610fbb565b600455610c8a81337f000000000000000000000000000000000000000000000000000000000000000061163d565b6040519160018352602083015260408201527f6ef2400e3559d8a9ff41d96e963ff23b7be0270529ffea64fee0747fb7f29e8560603392a2005b50335f90815260066020526040902054811115610c14565b506002544210610c02565b34610264575f600319360112610264576020610d0161119a565b60ff60405191168152f35b34610264575f600319360112610264576020610505611097565b346102645760206003193601126102645760043560ff600854166003811015610237571580610e10575b610d5990610ee4565b610d64811515610f49565b610d77600454610182610b6c8483610fae565b610d82811515610fc8565b610dae8130337f000000000000000000000000000000000000000000000000000000000000000061148e565b610dba82600454610fae565b600455335f52600660205260405f20610dd4838254610fae565b90556040519160018352602083015260408201527fe417997ad0a1c7dd102d3158fdf23af437ae25ed1926b1b069dc8e436fd16fb660603392a2005b506002544210610d50565b9190602083019260038210156102375752565b90601f7fffffffffffffffffffffffffffffffffffffffffffffffffffffffffffffffe0910116810190811067ffffffffffffffff821117610e6f57604052565b7f4e487b71000000000000000000000000000000000000000000000000000000005f52604160045260245ffd5b7fffffffffffffffffffffffffffffffffffffffffffffffffffffffffffffffe0601f602060409481855280519182918282880152018686015e5f8582860101520116010190565b15610eeb57565b60646040517f08c379a000000000000000000000000000000000000000000000000000000000815260206004820152600660248201527f636c6f73656400000000000000000000000000000000000000000000000000006044820152fd5b15610f5057565b60646040517f08c379a000000000000000000000000000000000000000000000000000000000815260206004820152600260248201527f64510000000000000000000000000000000000000000000000000000000000006044820152fd5b919082018092116102c157565b919082039182116102c157565b15610fcf57565b60646040517f08c379a000000000000000000000000000000000000000000000000000000000815260206004820152600460248201527f64757374000000000000000000000000000000000000000000000000000000006044820152fd5b8115611037570490565b7f4e487b71000000000000000000000000000000000000000000000000000000005f52601260045260245ffd5b81810392915f1380158285131691841216176102c157565b9190915f83820193841291129080158216911516176102c157565b600454620f4240810290808204620f424014901517156102c1576110be600354809261102d565b9060055490620f4240820291808304620f424014901517156102c1576110ea6111009161110b9361102d565b928381131561118c576111056111008280611064565b6114fc565b93611064565b90670de0b6b3a7640000810291818305670de0b6b3a764000014821517156102c1576111369161107c565b908115611037577fffffffffffffffffffffffffffffffffffffffffffffffffffffffffffffffff82147f80000000000000000000000000000000000000000000000000000000000000008214166102c1570590565b611105611100858093611064565b60ff600854166003811015610237576111c05760025442106111bb57600190565b600190565b600290565b156111cc57565b60646040517f08c379a000000000000000000000000000000000000000000000000000000000815260206004820152600660248201527f73686172657300000000000000000000000000000000000000000000000000006044820152fd5b1561123157565b60646040517f08c379a000000000000000000000000000000000000000000000000000000000815260206004820152600660248201527f6e6f2077696e00000000000000000000000000000000000000000000000000006044820152fd5b9081158080611486575b61147f57620f42408302928304620f42401417156102c1576112be600354809361102d565b90620f4240810290808204620f424014901517156102c157611100916113036111006112ed866113099561102d565b9283811315611472576111058196878093611064565b9061107c565b5f811315611414575f5b671bc16d674ec80000821015611408575b670de0b6b3a764000082106113db57906113bc9291670de0b6b3a7640000825f0301917ffffffffffffffffffffffffffffffffffffffffffffffffff21f494c589c0000670de0b6b3a7640000848284010205670de0b6b3a764000085820205926002600360046005670de0b6b3a764000067099e8db03256ce5d818c8b02059a029a8a02050597059505920501010101010161107c565b908181029181830414901517156102c157670de0b6b3a7640000900490565b907fffffffffffffffffffffffffffffffffffffffffffffffffffffffffffffffff9060011b9101611324565b600191821c9101611313565b60646040517f08c379a000000000000000000000000000000000000000000000000000000000815260206004820152600760248201527f6c6e20783c3d30000000000000000000000000000000000000000000000000006044820152fd5b6111058496878093611064565b5050505f90565b508115611299565b90919273ffffffffffffffffffffffffffffffffffffffff6114fa9481604051957f23b872dd0000000000000000000000000000000000000000000000000000000060208801521660248601521660448401526064830152606482526114f5608483610e2e565b61169a565b565b7ffffffffffffffffffffffffffffffffffffffffffffffffdb731c958f34d94c181131561163857680755bf798b4a1bf1e58112156115da5767b17217f7d1cf79ab670de0b6b3a76400008260601b050590670de0b6b3a76400006c0100000000000000000000000067b17217f7d1cf79ab840205029003670de0b6b3a76400008180020590670de0b6b3a7640000671bc16d674ec800008184020591818482020592600660786113b0858089890205988902050596059405910101010101905f81135f146115c9571b90565b5f81126115d4575090565b5f031c90565b60646040517f08c379a000000000000000000000000000000000000000000000000000000000815260206004820152600c60248201527f657870206f766572666c6f7700000000000000000000000000000000000000006044820152fd5b505f90565b6114fa9273ffffffffffffffffffffffffffffffffffffffff604051937fa9059cbb0000000000000000000000000000000000000000000000000000000060208601521660248401526044830152604482526114f5606483610e2e565b905f602091828151910182855af115611721575f513d611718575073ffffffffffffffffffffffffffffffffffffffff81163b155b6116d65750565b73ffffffffffffffffffffffffffffffffffffffff907f5274afe7000000000000000000000000000000000000000000000000000000005f521660045260245ffd5b600114156116cf565b6040513d5f823e3d90fdfea164736f6c634300081e000a","linkReferences":{}},"methodIdentifiers":{"b()":"4df7e3d0","buyNo(uint256)":"58c36e5c","buyYes(uint256)":"061dd98d","claim()":"4e71d92d","endTime()":"3197cbb6","marketState()":"08fb1b77","noShares(address)":"56bc793e","outcome()":"27793f87","priceNo()":"be0bfb9c","priceYes()":"089ef5e8","qNo()":"2acf1cd2","qYes()":"bfc59601","question()":"3fad9ae0","quoteBuyNo(uint256)":"3e094b8c","quoteBuyYes(uint256)":"386278b6","quoteSellNo(uint256)":"9223539b","quoteSellYes(uint256)":"745917d8","resolve(uint8)":"a0270dbc","sellNo(uint256)":"c545ab54","sellYes(uint256)":"11f957fd","title()":"4a79d50c","usdc()":"3e413bee","yesShares(address)":"818fa941"},"id":27}