{"abi":[{"type":"constructor","inputs":[{"name":"_marketIndex","type":"uint256","internalType":"uint256"},{"name":"_endTime","type":"uint256","internalType":"uint256"},{"name":"_creator","type":"address","internalType":"address"},{"name":"_creatorBetAmount","type":"uint256","internalType":"uint256"},{"name":"_opponentBetAmount","type":"uint256","internalType":"uint256"},{"name":"_creatorChoice","type":"uint8","internalType":"enum TwoPartyMarket.Outcome"},{"name":"_usdc","type":"address","internalType":"address"},{"name":"_ftsoAddress","type":"address","internalType":"address"},{"name":"_ftsoEpochId","type":"uint256","internalType":"uint256"},{"name":"_priceThreshold","type":"uint256","internalType":"uint256"},{"name":"_ftsoFeedId","type":"bytes21","internalType":"bytes21"}],"stateMutability":"nonpayable"},{"type":"function","name":"acceptChallenge","inputs":[],"outputs":[],"stateMutability":"nonpayable"},{"type":"function","name":"buyNo","inputs":[{"name":"amount","type":"uint256","internalType":"uint256"}],"outputs":[],"stateMutability":"nonpayable"},{"type":"function","name":"buyYes","inputs":[{"name":"amount","type":"uint256","internalType":"uint256"}],"outputs":[],"stateMutability":"nonpayable"},{"type":"function","name":"claim","inputs":[],"outputs":[],"stateMutability":"nonpayable"},{"type":"function","name":"creator","inputs":[],"outputs":[{"name":"","type":"address","internalType":"address"}],"stateMutability":"view"},{"type":"function","name":"creatorBetAmount","inputs":[],"outputs":[{"name":"","type":"uint256","internalType":"uint256"}],"stateMutability":"view"},{"type":"function","name":"creatorChoice","inputs":[],"outputs":[{"name":"","type":"uint8","internalType":"enum TwoPartyMarket.Outcome"}],"stateMutability":"view"},{"type":"function","name":"endTime","inputs":[],"outputs":[{"name":"","type":"uint256","internalType":"uint256"}],"stateMutability":"view"},{"type":"function","name":"ftsoAddress","inputs":[],"outputs":[{"name":"","type":"address","internalType":"address"}],"stateMutability":"view"},{"type":"function","name":"ftsoEpochId","inputs":[],"outputs":[{"name":"","type":"uint256","internalType":"uint256"}],"stateMutability":"view"},{"type":"function","name":"ftsoFeedId","inputs":[],"outputs":[{"name":"","type":"bytes21","internalType":"bytes21"}],"stateMutability":"view"},{"type":"function","name":"getMarketState","inputs":[],"outputs":[{"name":"","type":"uint8","internalType":"enum TwoPartyMarket.MarketState"}],"stateMutability":"view"},{"type":"function","name":"hasFTSOResolution","inputs":[],"outputs":[{"name":"","type":"bool","internalType":"bool"}],"stateMutability":"view"},{"type":"function","name":"marketIndex","inputs":[],"outputs":[{"name":"","type":"uint256","internalType":"uint256"}],"stateMutability":"view"},{"type":"function","name":"noPool","inputs":[],"outputs":[{"name":"","type":"uint256","internalType":"uint256"}],"stateMutability":"view"},{"type":"function","name":"noStake","inputs":[{"name":"","type":"address","internalType":"address"}],"outputs":[{"name":"","type":"uint256","internalType":"uint256"}],"stateMutability":"view"},{"type":"function","name":"opponentBetAmount","inputs":[],"outputs":[{"name":"","type":"uint256","internalType":"uint256"}],"stateMutability":"view"},{"type":"function","name":"outcome","inputs":[],"outputs":[{"name":"","type":"uint8","internalType":"enum TwoPartyMarket.Outcome"}],"stateMutability":"view"},{"type":"function","name":"priceThreshold","inputs":[],"outputs":[{"name":"","type":"uint256","internalType":"uint256"}],"stateMutability":"view"},{"type":"function","name":"provideInitialBet","inputs":[],"outputs":[],"stateMutability":"nonpayable"},{"type":"function","name":"resolveWithAI","inputs":[],"outputs":[],"stateMutability":"nonpayable"},{"type":"function","name":"resolveWithFTSO","inputs":[{"name":"_ftsoAddress","type":"address","internalType":"address"},{"name":"_epochId","type":"uint256","internalType":"uint256"},{"name":"_priceThreshold","type":"uint256","internalType":"uint256"},{"name":"_ftsoFeedId","type":"bytes21","internalType":"bytes21"}],"outputs":[],"stateMutability":"nonpayable"},{"type":"function","name":"resolveWithStoredFTSO","inputs":[],"outputs":[],"stateMutability":"nonpayable"},{"type":"function","name":"resolver","inputs":[],"outputs":[{"name":"","type":"address","internalType":"address"}],"stateMutability":"view"},{"type":"function","name":"usdc","inputs":[],"outputs":[{"name":"","type":"address","internalType":"contract IERC20"}],"stateMutability":"view"},{"type":"function","name":"yesPool","inputs":[],"outputs":[{"name":"","type":"uint256","internalType":"uint256"}],"stateMutability":"view"},{"type":"function","name":"yesStake","inputs":[{"name":"","type":"address","internalType":"address"}],"outputs":[{"name":"","type":"uint256","internalType":"uint256"}],"stateMutability":"view"},{"type":"event","name":"AIResolution","inputs":[{"name":"resolver","type":"address","indexed":true,"internalType":"address"},{"name":"outcome","type":"uint8","indexed":false,"internalType":"enum TwoPartyMarket.Outcome"},{"name":"reasoning","type":"string","indexed":false,"internalType":"string"}],"anonymous":false},{"type":"event","name":"FTSOResolution","inputs":[{"name":"resolver","type":"address","indexed":true,"internalType":"address"},{"name":"ftsoAddress","type":"address","indexed":false,"internalType":"address"},{"name":"epochId","type":"uint256","indexed":false,"internalType":"uint256"},{"name":"price","type":"uint256","indexed":false,"internalType":"uint256"},{"name":"threshold","type":"uint256","indexed":false,"internalType":"uint256"},{"name":"outcome","type":"uint8","indexed":false,"internalType":"enum TwoPartyMarket.Outcome"}],"anonymous":false},{"type":"error","name":"SafeERC20FailedOperation","inputs":[{"name":"token","type":"address","internalType":"address"}]}],"bytecode":{"object":"0x60a03461033457601f61195d38819003918201601f19168301916001600160401b038311848410176103385780849261016094604052833981010312610334578051906020810151916100546040830161034c565b9060608301519260808101519160a08201516003811080156103345761007c60c0850161034c565b9461008960e0860161034c565b97610100860151976101406101208801519701519a60018060581b03198c1698898d036103345760ff195f54165f5583156102e357841561029257600187148015610288575b15610243576001600160a01b031696871561020f57600755600155600280546001600160a01b03929092166001600160a01b0319928316811790915560088054909216179055600955600a55156101fb57600b80546080939093526001600160a81b031990921660ff9190911617600886901b610100600160a81b0316179055600c839055600d819055600e54936001600160a01b0316151592836101f1575b50826101e7575b50816101dd575b5060ff60a81b90151560a81b1660589290921c6001600160b01b0319919091161717600e556040516115fc908161036182396080518181816105ba01528181610744015281816109e001528181610b2a01528181610c620152610ff00152f35b905015155f61017d565b151591505f610176565b151592505f61016f565b634e487b7160e01b5f52602160045260245ffd5b60405162461bcd60e51b815260206004820152600c60248201526b696e76616c6964205553444360a01b6044820152606490fd5b60405162461bcd60e51b815260206004820152601660248201527f696e76616c69642063726561746f722063686f696365000000000000000000006044820152606490fd5b50600287146100cf565b60405162461bcd60e51b8152602060048201526024808201527f6f70706f6e656e742062657420616d6f756e74206d75737420626520706f73696044820152637469766560e01b6064820152608490fd5b60405162461bcd60e51b815260206004820152602360248201527f63726561746f722062657420616d6f756e74206d75737420626520706f73697460448201526269766560e81b6064820152608490fd5b5f80fd5b634e487b7160e01b5f52604160045260245ffd5b51906001600160a01b03821682036103345756fe6080806040526004361015610012575f80fd5b5f3560e01c90816302d05d3f146110835750806304f3bcec14611050578063061dd98d14610f945780630be0d35a14610f775780631eedad9114610cc757806327793f8714610ca35780633197cbb614610c865780633e413bee14610c365780634095ba2514610c115780634a0332a014610bcc5780634e71d92d14610a5d57806357cb557714610a4057806358c36e5c146109845780635c9a8d781461094e5780636caf711d1461090c5780636f1d4ea4146108ef5780638c7adc15146108d257806395e5dd071461088d578063a3b5afb114610870578063a446ffe0146106fa578063a9bfb1f9146106dd578063b166bf6b14610570578063b254294c1461054b578063cc2f60931461052e578063d816574314610503578063f2cfae40146102d05763f4cd851014610145575f80fd5b346102cc575f6003193601126102cc575f5461016d60ff8216610167816110d6565b156111fb565b61017b600154421015611246565b6003541515806102c1575b61018f90611291565b7fffffffffffffffffffffffffffffffffffffffffffffffffffffffffffffffff430190438211610294577fffffffffffffffffffffffffffffffffffffffffffffffffffffffffffffff00914060011661028b5760ff60015b6101f2816110d6565b1691829116175f5560405190610207816110d6565b815260406020820152603460408201527f41492064657465726d696e6564206f7574636f6d65206261736564206f6e206260608201527f6c6f636b636861696e2072616e646f6d6e65737300000000000000000000000060808201527f6f66e6e4c1c82bc4fe8b2c1d4632aea0cb0ee31b80e9c375428f1becf47a07c760a03392a2005b60ff60026101e9565b7f4e487b71000000000000000000000000000000000000000000000000000000005f52601160045260245ffd5b506004541515610186565b5f80fd5b346102cc575f6003193601126102cc575f546102f260ff8216610167816110d6565b610300600154421015611246565b600e5460ff8160a81c16156104bf576003541515806104b4575b61032390611291565b73ffffffffffffffffffffffffffffffffffffffff600b5460081c16917fffffffffffffffffffffffffffffffffffffffffff0000000000000000000000604051927f93e9f80600000000000000000000000000000000000000000000000000000000845260581b166004830152606082602481865afa80156104a9577f7f78b52d40a5bc63dd5812f1a844299237847792b82cfb82266b4727158817ed926103fa915f905f905f90610462575b6103f492935067ffffffffffffffff6103ec91161515611380565b60ff166113cb565b906113dc565b600d549091610454907fffffffffffffffffffffffffffffffffffffffffffffffffffffffffffffff00908385106104595760ff60015b61043a816110d6565b1691829116175f55600c5492604051948594339886611413565b0390a2005b60ff6002610431565b5050506103f46103ec61049567ffffffffffffffff9360603d6060116104a2575b61048d81836112dc565b81019061134a565b91945084935091506103d1565b503d610483565b6040513d5f823e3d90fd5b50600454151561031a565b606460405162461bcd60e51b815260206004820152601d60248201527f6e6f204654534f207265736f6c7574696f6e20636f6e666967757265640000006044820152fd5b346102cc575f6003193601126102cc57602061051d6114b4565b6040519061052a816110d6565b8152f35b346102cc575f6003193601126102cc576020600d54604051908152f35b346102cc575f6003193601126102cc57602060ff600e5460a81c166040519015158152f35b346102cc575f6003193601126102cc57600354158015906106d2575b1561068e5773ffffffffffffffffffffffffffffffffffffffff600854163314610624576105de600a5430337f00000000000000000000000000000000000000000000000000000000000000006114fa565b600160ff600b54166105ef816110d6565b0361060c57600a54335f5260066020528060405f20556004555f80f35b600a54335f5260056020528060405f20556003555f80f35b608460405162461bcd60e51b815260206004820152602360248201527f63726561746f722063616e6e6f7420616363657074206f776e206368616c6c6560448201527f6e676500000000000000000000000000000000000000000000000000000000006064820152fd5b606460405162461bcd60e51b815260206004820152600e60248201527f6e6f20696e697469616c206265740000000000000000000000000000000000006044820152fd5b50600454151561058c565b346102cc575f6003193601126102cc576020600c54604051908152f35b346102cc575f6003193601126102cc5773ffffffffffffffffffffffffffffffffffffffff6008541680330361082c576003541580610822575b156107de576009546107689130907f00000000000000000000000000000000000000000000000000000000000000006114fa565b600160ff600b5416610779816110d6565b036107ae5760095473ffffffffffffffffffffffffffffffffffffffff600854165f5260056020528060405f20556003555f80f35b60095473ffffffffffffffffffffffffffffffffffffffff600854165f5260066020528060405f20556004555f80f35b606460405162461bcd60e51b815260206004820152601460248201527f62657420616c72656164792070726f76696465640000000000000000000000006044820152fd5b5060045415610734565b606460405162461bcd60e51b815260206004820152600c60248201527f6f6e6c792063726561746f7200000000000000000000000000000000000000006044820152fd5b346102cc575f6003193601126102cc576020600454604051908152f35b346102cc5760206003193601126102cc5773ffffffffffffffffffffffffffffffffffffffff6108bb6110b3565b165f526005602052602060405f2054604051908152f35b346102cc575f6003193601126102cc576020600754604051908152f35b346102cc575f6003193601126102cc576020600354604051908152f35b346102cc575f6003193601126102cc576020600e5460581b7fffffffffffffffffffffffffffffffffffffffffff000000000000000000000060405191168152f35b346102cc575f6003193601126102cc57602073ffffffffffffffffffffffffffffffffffffffff600b5460081c16604051908152f35b346102cc5760206003193601126102cc57610a2560043560ff5f54166109a9816110d6565b1580610a35575b6109b99061110d565b600354151580610a2a575b6109cd90611158565b6109d88115156111a3565b610a048130337f00000000000000000000000000000000000000000000000000000000000000006114fa565b335f52600660205260405f20610a1b8282546111ee565b90556004546111ee565b600455005b5060045415156109c4565b5060015442106109b0565b346102cc575f6003193601126102cc576020600a54604051908152f35b346102cc575f6003193601126102cc5760ff5f5416610a7b816110d6565b8015610b8857610b4e906003546001610a9760045480936111ee565b92610aa1816110d6565b03610b505750610acc610ad591335f52600560205260405f205490610ac7821515611456565b6114a1565b600354906113dc565b335f5260056020525f60408120555b604051907fa9059cbb000000000000000000000000000000000000000000000000000000006020830152336024830152604482015260448152610b286064826112dc565b7f0000000000000000000000000000000000000000000000000000000000000000611568565b005b610b70610b7592335f52600660205260405f205490610ac7821515611456565b6113dc565b335f5260066020525f6040812055610ae4565b606460405162461bcd60e51b815260206004820152600c60248201527f6e6f74207265736f6c76656400000000000000000000000000000000000000006044820152fd5b346102cc5760206003193601126102cc5773ffffffffffffffffffffffffffffffffffffffff610bfa6110b3565b165f526006602052602060405f2054604051908152f35b346102cc575f6003193601126102cc57602060ff600b54166040519061052a816110d6565b346102cc575f6003193601126102cc57602060405173ffffffffffffffffffffffffffffffffffffffff7f0000000000000000000000000000000000000000000000000000000000000000168152f35b346102cc575f6003193601126102cc576020600154604051908152f35b346102cc575f6003193601126102cc57602060ff5f54166040519061052a816110d6565b346102cc5760806003193601126102cc57610ce06110b3565b60243560443590606435907fffffffffffffffffffffffffffffffffffffffffff000000000000000000000082168092036102cc575f5491610d2860ff8416610167816110d6565b610d36600154421015611246565b73ffffffffffffffffffffffffffffffffffffffff8516908115610f33578215610eef578415610eab578015610e6757606090600354151580610e5c575b610d7d90611291565b6024604051809481937f93e9f80600000000000000000000000000000000000000000000000000000000835260048301525afa9081156104a9577f7f78b52d40a5bc63dd5812f1a844299237847792b82cfb82266b4727158817ed94610e277fffffffffffffffffffffffffffffffffffffffffffffffffffffffffffffff0092610454945f905f905f90610462576103f492935067ffffffffffffffff6103ec91161515611380565b94818610610e535760ff60015b610e3d816110d6565b1692839116175f55604051948594339886611413565b60ff6002610e34565b506004541515610d74565b606460405162461bcd60e51b815260206004820152601460248201527f696e76616c6964204654534f20666565642049440000000000000000000000006044820152fd5b606460405162461bcd60e51b815260206004820152601760248201527f696e76616c6964207072696365207468726573686f6c640000000000000000006044820152fd5b606460405162461bcd60e51b815260206004820152601060248201527f696e76616c69642065706f6368204944000000000000000000000000000000006044820152fd5b606460405162461bcd60e51b815260206004820152601460248201527f696e76616c6964204654534f20616464726573730000000000000000000000006044820152fd5b346102cc575f6003193601126102cc576020600954604051908152f35b346102cc5760206003193601126102cc5761103560043560ff5f5416610fb9816110d6565b1580611045575b610fc99061110d565b60035415158061103a575b610fdd90611158565b610fe88115156111a3565b6110148130337f00000000000000000000000000000000000000000000000000000000000000006114fa565b335f52600560205260405f2061102b8282546111ee565b90556003546111ee565b600355005b506004541515610fd4565b506001544210610fc0565b346102cc575f6003193601126102cc57602073ffffffffffffffffffffffffffffffffffffffff60025416604051908152f35b346102cc575f6003193601126102cc5760209073ffffffffffffffffffffffffffffffffffffffff600854168152f35b6004359073ffffffffffffffffffffffffffffffffffffffff821682036102cc57565b600311156110e057565b7f4e487b71000000000000000000000000000000000000000000000000000000005f52602160045260245ffd5b1561111457565b606460405162461bcd60e51b815260206004820152600660248201527f636c6f73656400000000000000000000000000000000000000000000000000006044820152fd5b1561115f57565b606460405162461bcd60e51b815260206004820152601160248201527f6d61726b6574206e6f74206163746976650000000000000000000000000000006044820152fd5b156111aa57565b606460405162461bcd60e51b815260206004820152600960248201527f6e6f20616d6f756e7400000000000000000000000000000000000000000000006044820152fd5b9190820180921161029457565b1561120257565b606460405162461bcd60e51b815260206004820152601060248201527f616c7265616479207265736f6c766564000000000000000000000000000000006044820152fd5b1561124d57565b606460405162461bcd60e51b815260206004820152601460248201527f6d61726b6574206d75737420626520656e6465640000000000000000000000006044820152fd5b1561129857565b606460405162461bcd60e51b815260206004820152602060248201527f6d61726b6574206d7573742062652061637469766520746f207265736f6c76656044820152fd5b90601f7fffffffffffffffffffffffffffffffffffffffffffffffffffffffffffffffe0910116810190811067ffffffffffffffff82111761131d57604052565b7f4e487b71000000000000000000000000000000000000000000000000000000005f52604160045260245ffd5b908160609103126102cc578051916020820151805f0b81036102cc5760409092015167ffffffffffffffff811681036102cc5790565b1561138757565b606460405162461bcd60e51b815260206004820152601860248201527f4654534f207072696365206e6f7420617661696c61626c6500000000000000006044820152fd5b60ff16604d811161029457600a0a90565b81156113e6570490565b7f4e487b71000000000000000000000000000000000000000000000000000000005f52601260045260245ffd5b9192608093969594919673ffffffffffffffffffffffffffffffffffffffff60a0850198168452602084015260408301526060820152611452836110d6565b0152565b1561145d57565b606460405162461bcd60e51b815260206004820152600860248201527f6e6f207374616b650000000000000000000000000000000000000000000000006044820152fd5b8181029291811591840414171561029457565b60ff5f54166114c2816110d6565b6114f55760015442106114d457600190565b60035415806114eb575b6114e757600190565b5f90565b50600454156114de565b600290565b90919273ffffffffffffffffffffffffffffffffffffffff6115669481604051957f23b872dd0000000000000000000000000000000000000000000000000000000060208801521660248601521660448401526064830152606482526115616084836112dc565b611568565b565b905f602091828151910182855af1156104a9575f513d6115e6575073ffffffffffffffffffffffffffffffffffffffff81163b155b6115a45750565b73ffffffffffffffffffffffffffffffffffffffff907f5274afe7000000000000000000000000000000000000000000000000000000005f521660045260245ffd5b6001141561159d56fea164736f6c634300081e000a","linkReferences":{}},"methodIdentifiers":{"acceptChallenge()":"b166bf6b","buyNo(uint256)":"58c36e5c","buyYes(uint256)":"061dd98d","claim()":"4e71d92d","creator()":"02d05d3f","creatorBetAmount()":"0be0d35a","creatorChoice()":"4095ba25","endTime()":"3197cbb6","ftsoAddress()":"5c9a8d78","ftsoEpochId()":"a9bfb1f9","ftsoFeedId()":"6caf711d","getMarketState()":"d8165743","hasFTSOResolution()":"b254294c","marketIndex()":"8c7adc15","noPool()":"a3b5afb1","noStake(address)":"4a0332a0","opponentBetAmount()":"57cb5577","outcome()":"27793f87","priceThreshold()":"cc2f6093","provideInitialBet()":"a446ffe0","resolveWithAI()":"f4cd8510","resolveWithFTSO(address,uint256,uint256,bytes21)":"1eedad91","resolveWithStoredFTSO()":"f2cfae40","resolver()":"04f3bcec","usdc()":"3e413bee","yesPool()":"6f1d4ea4","yesStake(address)":"95e5dd07"},"id":37}