{"abi":[{"type":"constructor","inputs":[{"name":"_marketIndex","type":"uint256","internalType":"uint256"},{"name":"_endTime","type":"uint256","internalType":"uint256"},{"name":"_creator","type":"address","internalType":"address"},{"name":"_creatorBetAmount","type":"uint256","internalType":"uint256"},{"name":"_opponentBetAmount","type":"uint256","internalType":"uint256"},{"name":"_creatorChoice","type":"uint8","internalType":"enum TwoPartyMarket.Outcome"},{"name":"_usdc","type":"address","internalType":"address"}],"stateMutability":"nonpayable"},{"type":"function","name":"acceptChallenge","inputs":[],"outputs":[],"stateMutability":"nonpayable"},{"type":"function","name":"buyNo","inputs":[{"name":"amount","type":"uint256","internalType":"uint256"}],"outputs":[],"stateMutability":"nonpayable"},{"type":"function","name":"buyYes","inputs":[{"name":"amount","type":"uint256","internalType":"uint256"}],"outputs":[],"stateMutability":"nonpayable"},{"type":"function","name":"claim","inputs":[],"outputs":[],"stateMutability":"nonpayable"},{"type":"function","name":"creator","inputs":[],"outputs":[{"name":"","type":"address","internalType":"address"}],"stateMutability":"view"},{"type":"function","name":"creatorBetAmount","inputs":[],"outputs":[{"name":"","type":"uint256","internalType":"uint256"}],"stateMutability":"view"},{"type":"function","name":"creatorChoice","inputs":[],"outputs":[{"name":"","type":"uint8","internalType":"enum TwoPartyMarket.Outcome"}],"stateMutability":"view"},{"type":"function","name":"endTime","inputs":[],"outputs":[{"name":"","type":"uint256","internalType":"uint256"}],"stateMutability":"view"},{"type":"function","name":"getMarketState","inputs":[],"outputs":[{"name":"","type":"uint8","internalType":"enum TwoPartyMarket.MarketState"}],"stateMutability":"view"},{"type":"function","name":"marketIndex","inputs":[],"outputs":[{"name":"","type":"uint256","internalType":"uint256"}],"stateMutability":"view"},{"type":"function","name":"noPool","inputs":[],"outputs":[{"name":"","type":"uint256","internalType":"uint256"}],"stateMutability":"view"},{"type":"function","name":"noStake","inputs":[{"name":"","type":"address","internalType":"address"}],"outputs":[{"name":"","type":"uint256","internalType":"uint256"}],"stateMutability":"view"},{"type":"function","name":"opponentBetAmount","inputs":[],"outputs":[{"name":"","type":"uint256","internalType":"uint256"}],"stateMutability":"view"},{"type":"function","name":"outcome","inputs":[],"outputs":[{"name":"","type":"uint8","internalType":"enum TwoPartyMarket.Outcome"}],"stateMutability":"view"},{"type":"function","name":"provideInitialBet","inputs":[],"outputs":[],"stateMutability":"nonpayable"},{"type":"function","name":"resolveWithAI","inputs":[{"name":"o","type":"uint8","internalType":"enum TwoPartyMarket.Outcome"},{"name":"reasoning","type":"string","internalType":"string"}],"outputs":[],"stateMutability":"nonpayable"},{"type":"function","name":"resolver","inputs":[],"outputs":[{"name":"","type":"address","internalType":"address"}],"stateMutability":"view"},{"type":"function","name":"usdc","inputs":[],"outputs":[{"name":"","type":"address","internalType":"contract IERC20"}],"stateMutability":"view"},{"type":"function","name":"yesPool","inputs":[],"outputs":[{"name":"","type":"uint256","internalType":"uint256"}],"stateMutability":"view"},{"type":"function","name":"yesStake","inputs":[{"name":"","type":"address","internalType":"address"}],"outputs":[{"name":"","type":"uint256","internalType":"uint256"}],"stateMutability":"view"},{"type":"event","name":"AIResolution","inputs":[{"name":"resolver","type":"address","indexed":true,"internalType":"address"},{"name":"outcome","type":"uint8","indexed":false,"internalType":"enum TwoPartyMarket.Outcome"},{"name":"reasoning","type":"string","indexed":false,"internalType":"string"}],"anonymous":false},{"type":"error","name":"SafeERC20FailedOperation","inputs":[{"name":"token","type":"address","internalType":"address"}]}],"bytecode":{"object":"0x60a03461027057601f61126f38819003918201601f19168301916001600160401b038311848410176102745780849260e0946040528339810103126102705780519060208101519061005360408201610288565b606082015160808301519160a084015194600386109485156102705760c061007b9101610288565b60ff195f54165f55831561021f5784156101ce576001871480156101c4575b1561017f576001600160a01b031696871561014b57600755600155600280546001600160a01b03929092166001600160a01b0319928316811790915560088054909216179055600955600a55156101375760ff8019600b5416911617600b55608052604051610fd2908161029d8239608051818181610171015281816102de0152818161085e015281816109a801528181610ae30152610bc10152f35b634e487b7160e01b5f52602160045260245ffd5b60405162461bcd60e51b815260206004820152600c60248201526b696e76616c6964205553444360a01b6044820152606490fd5b60405162461bcd60e51b815260206004820152601660248201527f696e76616c69642063726561746f722063686f696365000000000000000000006044820152606490fd5b506002871461009a565b60405162461bcd60e51b8152602060048201526024808201527f6f70706f6e656e742062657420616d6f756e74206d75737420626520706f73696044820152637469766560e01b6064820152608490fd5b60405162461bcd60e51b815260206004820152602360248201527f63726561746f722062657420616d6f756e74206d75737420626520706f73697460448201526269766560e81b6064820152608490fd5b5f80fd5b634e487b7160e01b5f52604160045260245ffd5b51906001600160a01b03821682036102705756fe6080806040526004361015610012575f80fd5b5f3560e01c90816302d05d3f14610c545750806304f3bcec14610c21578063061dd98d14610b655780630be0d35a14610b4857806327793f8714610b245780633197cbb614610b075780633e413bee14610ab75780634095ba2514610a925780634a0332a014610a4a5780634e71d92d146108db57806357cb5577146108be57806358c36e5c1461080257806363cea373146104a95780636f1d4ea41461048c5780638c7adc151461046f57806395e5dd0714610427578063a3b5afb11461040a578063a446ffe014610294578063b166bf6b146101275763d8165743146100f8575f80fd5b34610123575f600319360112610123576020610112610e7f565b6040519061011f81610c84565b8152f35b5f80fd5b34610123575f6003193601126101235760035415801590610289575b156102455773ffffffffffffffffffffffffffffffffffffffff6008541633146101db57610195600a5430337f0000000000000000000000000000000000000000000000000000000000000000610ec5565b600160ff600b54166101a681610c84565b036101c357600a54335f5260066020528060405f20556004555f80f35b600a54335f5260056020528060405f20556003555f80f35b608460405162461bcd60e51b815260206004820152602360248201527f63726561746f722063616e6e6f7420616363657074206f776e206368616c6c6560448201527f6e676500000000000000000000000000000000000000000000000000000000006064820152fd5b606460405162461bcd60e51b815260206004820152600e60248201527f6e6f20696e697469616c206265740000000000000000000000000000000000006044820152fd5b506004541515610143565b34610123575f6003193601126101235773ffffffffffffffffffffffffffffffffffffffff600854168033036103c65760035415806103bc575b15610378576009546103029130907f0000000000000000000000000000000000000000000000000000000000000000610ec5565b600160ff600b541661031381610c84565b036103485760095473ffffffffffffffffffffffffffffffffffffffff600854165f5260056020528060405f20556003555f80f35b60095473ffffffffffffffffffffffffffffffffffffffff600854165f5260066020528060405f20556004555f80f35b606460405162461bcd60e51b815260206004820152601460248201527f62657420616c72656164792070726f76696465640000000000000000000000006044820152fd5b50600454156102ce565b606460405162461bcd60e51b815260206004820152600c60248201527f6f6e6c792063726561746f7200000000000000000000000000000000000000006044820152fd5b34610123575f600319360112610123576020600454604051908152f35b346101235760206003193601126101235760043573ffffffffffffffffffffffffffffffffffffffff8116809103610123575f526005602052602060405f2054604051908152f35b34610123575f600319360112610123576020600754604051908152f35b34610123575f600319360112610123576020600354604051908152f35b34610123576040600319360112610123576004356003811015610123576024359067ffffffffffffffff821161012357366023830112156101235781600401359067ffffffffffffffff82116107d5576040519161052f60207fffffffffffffffffffffffffffffffffffffffffffffffffffffffffffffffe0601f8401160184610cbb565b8083526020830193366024838301011161012357815f926024602093018737840101525f549160ff831661056281610c84565b61079157600154603c81018091116107645742106106fb5761058382610c84565b6001821480156106e8575b156106a457600354151580610699575b15610655577f6f66e6e4c1c82bc4fe8b2c1d4632aea0cb0ee31b80e9c375428f1becf47a07c7926105ce83610c84565b7fffffffffffffffffffffffffffffffffffffffffffffffffffffffffffffff001660ff8316175f556040519161060481610c84565b825260406020830152518093816040840152606083015e5f606084830101526060817fffffffffffffffffffffffffffffffffffffffffffffffffffffffffffffffe0601f339601168101030190a2005b606460405162461bcd60e51b815260206004820152602060248201527f6d61726b6574206d7573742062652061637469766520746f207265736f6c76656044820152fd5b50600454151561059e565b606460405162461bcd60e51b815260206004820152600f60248201527f696e76616c6964206f7574636f6d6500000000000000000000000000000000006044820152fd5b506106f282610c84565b6002821461058e565b608460405162461bcd60e51b8152602060048201526024808201527f6d75737420776169742031206d696e757465206166746572206d61726b65742060448201527f656e6473000000000000000000000000000000000000000000000000000000006064820152fd5b7f4e487b71000000000000000000000000000000000000000000000000000000005f52601160045260245ffd5b606460405162461bcd60e51b815260206004820152601060248201527f616c7265616479207265736f6c766564000000000000000000000000000000006044820152fd5b7f4e487b71000000000000000000000000000000000000000000000000000000005f52604160045260245ffd5b34610123576020600319360112610123576108a360043560ff5f541661082781610c84565b15806108b3575b61083790610cfc565b6003541515806108a8575b61084b90610d47565b610856811515610d92565b6108828130337f0000000000000000000000000000000000000000000000000000000000000000610ec5565b335f52600660205260405f20610899828254610ddd565b9055600454610ddd565b600455005b506004541515610842565b50600154421061082e565b34610123575f600319360112610123576020600a54604051908152f35b34610123575f6003193601126101235760ff5f54166108f981610c84565b8015610a06576109cc9060035460016109156004548093610ddd565b9261091f81610c84565b036109ce575061094a61095391335f52600560205260405f205490610945821515610dea565b610e35565b60035490610e48565b335f5260056020525f60408120555b604051907fa9059cbb0000000000000000000000000000000000000000000000000000000060208301523360248301526044820152604481526109a6606482610cbb565b7f0000000000000000000000000000000000000000000000000000000000000000610f33565b005b6109ee6109f392335f52600660205260405f205490610945821515610dea565b610e48565b335f5260066020525f6040812055610962565b606460405162461bcd60e51b815260206004820152600c60248201527f6e6f74207265736f6c76656400000000000000000000000000000000000000006044820152fd5b346101235760206003193601126101235760043573ffffffffffffffffffffffffffffffffffffffff8116809103610123575f526006602052602060405f2054604051908152f35b34610123575f60031936011261012357602060ff600b54166040519061011f81610c84565b34610123575f60031936011261012357602060405173ffffffffffffffffffffffffffffffffffffffff7f0000000000000000000000000000000000000000000000000000000000000000168152f35b34610123575f600319360112610123576020600154604051908152f35b34610123575f60031936011261012357602060ff5f54166040519061011f81610c84565b34610123575f600319360112610123576020600954604051908152f35b3461012357602060031936011261012357610c0660043560ff5f5416610b8a81610c84565b1580610c16575b610b9a90610cfc565b600354151580610c0b575b610bae90610d47565b610bb9811515610d92565b610be58130337f0000000000000000000000000000000000000000000000000000000000000000610ec5565b335f52600560205260405f20610bfc828254610ddd565b9055600354610ddd565b600355005b506004541515610ba5565b506001544210610b91565b34610123575f60031936011261012357602073ffffffffffffffffffffffffffffffffffffffff60025416604051908152f35b34610123575f6003193601126101235760209073ffffffffffffffffffffffffffffffffffffffff600854168152f35b60031115610c8e57565b7f4e487b71000000000000000000000000000000000000000000000000000000005f52602160045260245ffd5b90601f7fffffffffffffffffffffffffffffffffffffffffffffffffffffffffffffffe0910116810190811067ffffffffffffffff8211176107d557604052565b15610d0357565b606460405162461bcd60e51b815260206004820152600660248201527f636c6f73656400000000000000000000000000000000000000000000000000006044820152fd5b15610d4e57565b606460405162461bcd60e51b815260206004820152601160248201527f6d61726b6574206e6f74206163746976650000000000000000000000000000006044820152fd5b15610d9957565b606460405162461bcd60e51b815260206004820152600960248201527f6e6f20616d6f756e7400000000000000000000000000000000000000000000006044820152fd5b9190820180921161076457565b15610df157565b606460405162461bcd60e51b815260206004820152600860248201527f6e6f207374616b650000000000000000000000000000000000000000000000006044820152fd5b8181029291811591840414171561076457565b8115610e52570490565b7f4e487b71000000000000000000000000000000000000000000000000000000005f52601260045260245ffd5b60ff5f5416610e8d81610c84565b610ec0576001544210610e9f57600190565b6003541580610eb6575b610eb257600190565b5f90565b5060045415610ea9565b600290565b90919273ffffffffffffffffffffffffffffffffffffffff610f319481604051957f23b872dd000000000000000000000000000000000000000000000000000000006020880152166024860152166044840152606483015260648252610f2c608483610cbb565b610f33565b565b905f602091828151910182855af115610fba575f513d610fb1575073ffffffffffffffffffffffffffffffffffffffff81163b155b610f6f5750565b73ffffffffffffffffffffffffffffffffffffffff907f5274afe7000000000000000000000000000000000000000000000000000000005f521660045260245ffd5b60011415610f68565b6040513d5f823e3d90fdfea164736f6c634300081e000a","linkReferences":{}},"methodIdentifiers":{"acceptChallenge()":"b166bf6b","buyNo(uint256)":"58c36e5c","buyYes(uint256)":"061dd98d","claim()":"4e71d92d","creator()":"02d05d3f","creatorBetAmount()":"0be0d35a","creatorChoice()":"4095ba25","endTime()":"3197cbb6","getMarketState()":"d8165743","marketIndex()":"8c7adc15","noPool()":"a3b5afb1","noStake(address)":"4a0332a0","opponentBetAmount()":"57cb5577","outcome()":"27793f87","provideInitialBet()":"a446ffe0","resolveWithAI(uint8,string)":"63cea373","resolver()":"04f3bcec","usdc()":"3e413bee","yesPool()":"6f1d4ea4","yesStake(address)":"95e5dd07"},"id":34}