{"abi":[{"type":"function","name":"PRECISION","inputs":[],"outputs":[{"name":"","type":"uint256","internalType":"uint256"}],"stateMutability":"view"}],"bytecode":{"object":"0x60808060405234601757606c9081601c823930815050f35b5f80fdfe60808060405260043610156011575f80fd5b5f3560e01c63aaf5eb68146023575f80fd5b5f7ffffffffffffffffffffffffffffffffffffffffffffffffffffffffffffffffc360112605b5780670de0b6b3a764000060209252f35b5f80fdfea164736f6c634300081e000a","linkReferences":{}},"methodIdentifiers":{"PRECISION()":"aaf5eb68"},"id":22}