{"abi":[{"type":"constructor","inputs":[{"name":"_usdc","type":"address","internalType":"address"},{"name":"_title","type":"string","internalType":"string"},{"name":"_question","type":"string","internalType":"string"},{"name":"_end","type":"uint256","internalType":"uint256"},{"name":"_initialLiquidity","type":"uint256","internalType":"uint256"}],"stateMutability":"nonpayable"},{"type":"function","name":"buyNo","inputs":[{"name":"dQ","type":"uint256","internalType":"uint256"}],"outputs":[],"stateMutability":"nonpayable"},{"type":"function","name":"buyYes","inputs":[{"name":"dQ","type":"uint256","internalType":"uint256"}],"outputs":[],"stateMutability":"nonpayable"},{"type":"function","name":"claim","inputs":[],"outputs":[],"stateMutability":"nonpayable"},{"type":"function","name":"endTime","inputs":[],"outputs":[{"name":"","type":"uint256","internalType":"uint256"}],"stateMutability":"view"},{"type":"function","name":"k","inputs":[],"outputs":[{"name":"","type":"uint256","internalType":"uint256"}],"stateMutability":"view"},{"type":"function","name":"meta","inputs":[],"outputs":[{"name":"","type":"uint256","internalType":"uint256"},{"name":"","type":"uint8","internalType":"enum ConstantProductMarket.Outcome"},{"name":"","type":"uint8","internalType":"enum ConstantProductMarket.MarketState"},{"name":"","type":"string","internalType":"string"},{"name":"","type":"string","internalType":"string"}],"stateMutability":"view"},{"type":"function","name":"noShares","inputs":[{"name":"","type":"address","internalType":"address"}],"outputs":[{"name":"","type":"uint256","internalType":"uint256"}],"stateMutability":"view"},{"type":"function","name":"outcome","inputs":[],"outputs":[{"name":"","type":"uint8","internalType":"enum ConstantProductMarket.Outcome"}],"stateMutability":"view"},{"type":"function","name":"priceNo","inputs":[],"outputs":[{"name":"","type":"uint256","internalType":"uint256"}],"stateMutability":"view"},{"type":"function","name":"priceYes","inputs":[],"outputs":[{"name":"","type":"uint256","internalType":"uint256"}],"stateMutability":"view"},{"type":"function","name":"qNo","inputs":[],"outputs":[{"name":"","type":"uint256","internalType":"uint256"}],"stateMutability":"view"},{"type":"function","name":"qYes","inputs":[],"outputs":[{"name":"","type":"uint256","internalType":"uint256"}],"stateMutability":"view"},{"type":"function","name":"question","inputs":[],"outputs":[{"name":"","type":"string","internalType":"string"}],"stateMutability":"view"},{"type":"function","name":"quoteBuyNo","inputs":[{"name":"dQ","type":"uint256","internalType":"uint256"}],"outputs":[{"name":"","type":"uint256","internalType":"uint256"}],"stateMutability":"view"},{"type":"function","name":"quoteBuyYes","inputs":[{"name":"dQ","type":"uint256","internalType":"uint256"}],"outputs":[{"name":"","type":"uint256","internalType":"uint256"}],"stateMutability":"view"},{"type":"function","name":"quoteSellNo","inputs":[{"name":"dQ","type":"uint256","internalType":"uint256"}],"outputs":[{"name":"","type":"uint256","internalType":"uint256"}],"stateMutability":"view"},{"type":"function","name":"quoteSellYes","inputs":[{"name":"dQ","type":"uint256","internalType":"uint256"}],"outputs":[{"name":"","type":"uint256","internalType":"uint256"}],"stateMutability":"view"},{"type":"function","name":"resolve","inputs":[{"name":"o","type":"uint8","internalType":"enum ConstantProductMarket.Outcome"}],"outputs":[],"stateMutability":"nonpayable"},{"type":"function","name":"sellNo","inputs":[{"name":"dQ","type":"uint256","internalType":"uint256"}],"outputs":[],"stateMutability":"nonpayable"},{"type":"function","name":"sellYes","inputs":[{"name":"dQ","type":"uint256","internalType":"uint256"}],"outputs":[],"stateMutability":"nonpayable"},{"type":"function","name":"shareScale","inputs":[],"outputs":[{"name":"","type":"uint256","internalType":"uint256"}],"stateMutability":"view"},{"type":"function","name":"title","inputs":[],"outputs":[{"name":"","type":"string","internalType":"string"}],"stateMutability":"view"},{"type":"function","name":"usdc","inputs":[],"outputs":[{"name":"","type":"address","internalType":"contract IERC20"}],"stateMutability":"view"},{"type":"function","name":"yesShares","inputs":[{"name":"","type":"address","internalType":"address"}],"outputs":[{"name":"","type":"uint256","internalType":"uint256"}],"stateMutability":"view"},{"type":"event","name":"Buy","inputs":[{"name":"user","type":"address","indexed":true,"internalType":"address"},{"name":"yes","type":"bool","indexed":false,"internalType":"bool"},{"name":"dQ","type":"uint256","indexed":false,"internalType":"uint256"},{"name":"costUSDC","type":"uint256","indexed":false,"internalType":"uint256"}],"anonymous":false},{"type":"event","name":"Claimed","inputs":[{"name":"user","type":"address","indexed":true,"internalType":"address"},{"name":"amountUSDC","type":"uint256","indexed":false,"internalType":"uint256"}],"anonymous":false},{"type":"event","name":"Resolved","inputs":[{"name":"o","type":"uint8","indexed":false,"internalType":"enum ConstantProductMarket.Outcome"}],"anonymous":false},{"type":"event","name":"Sell","inputs":[{"name":"user","type":"address","indexed":true,"internalType":"address"},{"name":"yes","type":"bool","indexed":false,"internalType":"bool"},{"name":"dQ","type":"uint256","indexed":false,"internalType":"uint256"},{"name":"refundUSDC","type":"uint256","indexed":false,"internalType":"uint256"}],"anonymous":false},{"type":"error","name":"SafeERC20FailedOperation","inputs":[{"name":"token","type":"address","internalType":"address"}]}],"bytecode":{"object":"0x60c06040523461042657611bc1803803806100198161042a565b92833981019060a0818303126104265780516001600160a01b038116908190036104265760208201516001600160401b038111610426578361005c91840161044f565b604083015190936001600160401b0382116104265761007c91840161044f565b91608060608201519101519160ff196008541660085580156103fb5782156103ca574282111561039f5760805283516001600160401b0381116102b3575f54600181811c91168015610395575b602082101461029557601f8111610333575b50602094601f82116001146102d2579481929394955f926102c7575b50508160011b915f199060031b1c1916175f555b82516001600160401b0381116102b357600154600181811c911680156102a9575b602082101461029557601f8111610232575b506020601f82116001146101cf57819293945f926101c4575b50508160011b915f199060031b1c1916176001555b600255600355620f424060a05260405161172090816104a182396080518181816103a80152818161081d0152818161095301528181610aad01528181610d2d01528181610ebe0152610fbd015260a051816101380152f35b015190505f80610157565b601f1982169060015f52805f20915f5b81811061021a57509583600195969710610202575b505050811b0160015561016c565b01515f1960f88460031b161c191690555f80806101f4565b9192602060018192868b0151815501940192016101df565b60015f527fb10e2d527612073b26eecdfd717e6a320cf44b4afac2b0732d9fcbe2b7fa0cf6601f830160051c8101916020841061028b575b601f0160051c01905b818110610280575061013e565b5f8155600101610273565b909150819061026a565b634e487b7160e01b5f52602260045260245ffd5b90607f169061012c565b634e487b7160e01b5f52604160045260245ffd5b015190505f806100f7565b601f198216955f8052805f20915f5b88811061031b57508360019596979810610303575b505050811b015f5561010b565b01515f1960f88460031b161c191690555f80806102f6565b919260206001819286850151815501940192016102e1565b5f80527f290decd9548b62a8d60345a988386fc84ba6bc95484008f6362f93160ef3e563601f830160051c8101916020841061038b575b601f0160051c01905b81811061038057506100db565b5f8155600101610373565b909150819061036a565b90607f16906100c9565b60405162461bcd60e51b8152602060048201526003602482015262195b9960ea1b6044820152606490fd5b60405162461bcd60e51b81526020600482015260096024820152686c697175696469747960b81b6044820152606490fd5b606460405162461bcd60e51b81526020600482015260046024820152637573646360e01b6044820152fd5b5f80fd5b6040519190601f01601f191682016001600160401b038111838210176102b357604052565b81601f82011215610426578051906001600160401b0382116102b35761047e601f8301601f191660200161042a565b928284526020838301011161042657815f9260208093018386015e830101529056fe60806040526004361015610011575f80fd5b5f3560e01c8063061dd98d14610f59578063089ef5e814610f3f57806311f957fd14610e3057806327793f8714610e075780632acf1cd214610dea5780633197cbb614610dcd578063386278b614610d8c5780633e094b8c14610d515780633e413bee14610d015780633fad9ae014610ce65780634a79d50c14610bd75780634e71d92d146108f557806356bc793e146108ad57806358c36e5c146107a7578063745917d814610753578063818fa9411461070b5780639223539b146106b5578063a0270dbc146104cb578063b4f40c61146104ae578063be0bfb9c14610445578063bfc5960114610428578063c545ab5414610307578063c885044e1461015f5763e258249514610121575f80fd5b3461015b575f60031936011261015b5760206040517f00000000000000000000000000000000000000000000000000000000000000008152f35b5f80fd5b3461015b575f60031936011261015b5760ff6008541661017e8161104e565b80156102f05760015b600254906040515f5f548060011c906001811680156102e6575b6020831081146102b9578285529081156102795750600114610223575b50816101d361021f9493610211930382611085565b6101db6110f3565b9260405196879687526101ed8161104e565b60208701526101fb8161104e565b604086015260a0606086015260a08501906111df565b9083820360808501526111df565b0390f35b5f80805291507f290decd9548b62a8d60345a988386fc84ba6bc95484008f6362f93160ef3e5635b81831061025f5750508101602001816101be565b60018160209294939454838588010152019101919061024b565b7fffffffffffffffffffffffffffffffffffffffffffffffffffffffffffffff001660208086019190915291151560051b840190910191508290506101be565b7f4e487b71000000000000000000000000000000000000000000000000000000005f52602260045260245ffd5b91607f16916101a1565b600254421015610300575f610187565b6002610187565b3461015b57602060031936011261015b5760043560ff6008541661032a8161104e565b158061041d575b61033a90611222565b80151580610405575b61034c9061145b565b6103796004546103736005549161036d856103678584611525565b946112f9565b90611525565b906112f9565b335f52600760205260405f206103908382546112f9565b905561039e826005546112f9565b6005556103cc81337f00000000000000000000000000000000000000000000000000000000000000006115e9565b604051915f8352602083015260408201527f6ef2400e3559d8a9ff41d96e963ff23b7be0270529ffea64fee0747fb7f29e8560603392a2005b50335f90815260076020526040902054811115610343565b506002544210610331565b3461015b575f60031936011261015b576020600454604051908152f35b3461015b575f60031936011261015b5761045d6113b5565b670de0b6b3a764000003670de0b6b3a7640000811161048157602090604051908152f35b7f4e487b71000000000000000000000000000000000000000000000000000000005f52601160045260245ffd5b3461015b575f60031936011261015b576020600354604051908152f35b3461015b57602060031936011261015b57600435600381101561015b5760025442106106575760085460ff81166105018161104e565b6105f95761050e8261104e565b6001821480156105e6575b15610588578160209161054c7f5e186f09b9c93491f14e277eea7faa5de6a2d4bda75a79af7a3684fbfb42da609461104e565b7fffffffffffffffffffffffffffffffffffffffffffffffffffffffffffffff001660ff821617600855604051906105838161104e565b8152a1005b60646040517f08c379a000000000000000000000000000000000000000000000000000000000815260206004820152600360248201527f62616400000000000000000000000000000000000000000000000000000000006044820152fd5b506105f08261104e565b60028214610519565b60646040517f08c379a000000000000000000000000000000000000000000000000000000000815260206004820152600860248201527f7265736f6c7665640000000000000000000000000000000000000000000000006044820152fd5b60646040517f08c379a000000000000000000000000000000000000000000000000000000000815260206004820152600960248201527f6e6f7420656e64656400000000000000000000000000000000000000000000006044820152fd5b3461015b57602060031936011261015b5760206106f7600435801515806106ff575b6106e090611287565b61037360045461036d600554936103678584611525565b604051908152f35b506005548111156106d7565b3461015b57602060031936011261015b5760043573ffffffffffffffffffffffffffffffffffffffff811680910361015b575f526006602052602060405f2054604051908152f35b3461015b57602060031936011261015b5760206106f76004358015158061079b575b61077e90611287565b61037360045491610796600554916103678386611525565b611525565b50600454811115610775565b3461015b57602060031936011261015b5760043560ff600854166107ca8161104e565b15806108a2575b6107da90611222565b6107e5811515611287565b61080a6004546103736005546108046107fe86836112ec565b84611525565b92611525565b610815811515611306565b6108418130337f000000000000000000000000000000000000000000000000000000000000000061157d565b61084d826005546112ec565b600555335f52600760205260405f206108678382546112ec565b9055604051915f8352602083015260408201527fe417997ad0a1c7dd102d3158fdf23af437ae25ed1926b1b069dc8e436fd16fb660603392a2005b5060025442106107d1565b3461015b57602060031936011261015b5760043573ffffffffffffffffffffffffffffffffffffffff811680910361015b575f526007602052602060405f2054604051908152f35b3461015b575f60031936011261015b5760ff600854166109148161104e565b8015610b79576001906109268161104e565b03610a8557335f52600660205260405f20546109438115156114c0565b335f5260066020525f60408120557f00000000000000000000000000000000000000000000000000000000000000006040517f70a0823100000000000000000000000000000000000000000000000000000000815230600482015260208160248173ffffffffffffffffffffffffffffffffffffffff86165afa908115610a7a575f91610a48575b50600454905f9381151580610a3f575b610a1d575b505050816109ef9133906115e9565b6040519081527fd8138f8a3f377c5259ca548e70e4c2de94f129f5a11036a15b69513cba2b426a60203392a2005b6109ef939450610a369291610a319161136b565b61137e565b919083806109e0565b508215156109db565b90506020813d602011610a72575b81610a6360209383611085565b8101031261015b5751836109cb565b3d9150610a56565b6040513d5f823e3d90fd5b335f52600760205260405f2054610a9d8115156114c0565b335f5260076020525f60408120557f00000000000000000000000000000000000000000000000000000000000000006040517f70a0823100000000000000000000000000000000000000000000000000000000815230600482015260208160248173ffffffffffffffffffffffffffffffffffffffff86165afa908115610a7a575f91610b47575b50600554905f9381151580610a3f57610a1d57505050816109ef9133906115e9565b90506020813d602011610b71575b81610b6260209383611085565b8101031261015b575183610b25565b3d9150610b55565b60646040517f08c379a000000000000000000000000000000000000000000000000000000000815260206004820152600a60248201527f756e7265736f6c766564000000000000000000000000000000000000000000006044820152fd5b3461015b575f60031936011261015b576040515f5f548060011c90600181168015610cdc575b6020831081146102b957828552908115610c9a5750600114610c3e575b61021f83610c2a81850382611085565b6040519182916020835260208301906111df565b5f8080527f290decd9548b62a8d60345a988386fc84ba6bc95484008f6362f93160ef3e563939250905b808210610c8057509091508101602001610c2a610c1a565b919260018160209254838588010152019101909291610c68565b7fffffffffffffffffffffffffffffffffffffffffffffffffffffffffffffff001660208086019190915291151560051b84019091019150610c2a9050610c1a565b91607f1691610bfd565b3461015b575f60031936011261015b5761021f610c2a6110f3565b3461015b575f60031936011261015b57602060405173ffffffffffffffffffffffffffffffffffffffff7f0000000000000000000000000000000000000000000000000000000000000000168152f35b3461015b57602060031936011261015b5760206106f7600435610d75811515611287565b610373600454916108046107fe60055492836112ec565b3461015b57602060031936011261015b5760206106f7600435610db0811515611287565b610373610dc060045492836112ec565b6108046005548092611525565b3461015b575f60031936011261015b576020600254604051908152f35b3461015b575f60031936011261015b576020600554604051908152f35b3461015b575f60031936011261015b57602060ff6008541660405190610e2c8161104e565b8152f35b3461015b57602060031936011261015b5760043560ff60085416610e538161104e565b1580610f34575b610e6390611222565b80151580610f1c575b610e759061145b565b610e8f600454610373600554610796856103678386611525565b335f52600660205260405f20610ea68382546112f9565b9055610eb4826004546112f9565b600455610ee281337f00000000000000000000000000000000000000000000000000000000000000006115e9565b6040519160018352602083015260408201527f6ef2400e3559d8a9ff41d96e963ff23b7be0270529ffea64fee0747fb7f29e8560603392a2005b50335f90815260066020526040902054811115610e6c565b506002544210610e5a565b3461015b575f60031936011261015b5760206106f76113b5565b3461015b57602060031936011261015b5760043560ff60085416610f7c8161104e565b1580611043575b610f8c90611222565b610f97811515611287565b610faa600454610373610dc084836112ec565b610fb5811515611306565b610fe18130337f000000000000000000000000000000000000000000000000000000000000000061157d565b610fed826004546112ec565b600455335f52600660205260405f206110078382546112ec565b90556040519160018352602083015260408201527fe417997ad0a1c7dd102d3158fdf23af437ae25ed1926b1b069dc8e436fd16fb660603392a2005b506002544210610f83565b6003111561105857565b7f4e487b71000000000000000000000000000000000000000000000000000000005f52602160045260245ffd5b90601f7fffffffffffffffffffffffffffffffffffffffffffffffffffffffffffffffe0910116810190811067ffffffffffffffff8211176110c657604052565b7f4e487b71000000000000000000000000000000000000000000000000000000005f52604160045260245ffd5b604051905f6001548060011c91600182169182156111d5575b6020841083146102b95783865285929081156111985750600114611139575b61113792500383611085565b565b5060015f90815290917fb10e2d527612073b26eecdfd717e6a320cf44b4afac2b0732d9fcbe2b7fa0cf65b81831061117c5750509060206111379282010161112b565b6020919350806001915483858901015201910190918492611164565b602092506111379491507fffffffffffffffffffffffffffffffffffffffffffffffffffffffffffffff001682840152151560051b82010161112b565b92607f169261110c565b907fffffffffffffffffffffffffffffffffffffffffffffffffffffffffffffffe0601f602080948051918291828752018686015e5f8582860101520116010190565b1561122957565b60646040517f08c379a000000000000000000000000000000000000000000000000000000000815260206004820152600660248201527f636c6f73656400000000000000000000000000000000000000000000000000006044820152fd5b1561128e57565b60646040517f08c379a000000000000000000000000000000000000000000000000000000000815260206004820152600260248201527f64510000000000000000000000000000000000000000000000000000000000006044820152fd5b9190820180921161048157565b9190820391821161048157565b1561130d57565b60646040517f08c379a000000000000000000000000000000000000000000000000000000000815260206004820152600460248201527f64757374000000000000000000000000000000000000000000000000000000006044820152fd5b8181029291811591840414171561048157565b8115611388570490565b7f4e487b71000000000000000000000000000000000000000000000000000000005f52601260045260245ffd5b600454801580611451575b61144457600354906113d282826112ec565b90670de0b6b3a7640000820291808304670de0b6b3a7640000149015171561048157600554611400916112ec565b917f7fffffffffffffffffffffffffffffffffffffffffffffffffffffffffffffff81168103610481576114419261143b9160011b906112ec565b9061137e565b90565b506706f05b59d3b2000090565b50600554156113c0565b1561146257565b60646040517f08c379a000000000000000000000000000000000000000000000000000000000815260206004820152600660248201527f73686172657300000000000000000000000000000000000000000000000000006044820152fd5b156114c757565b60646040517f08c379a000000000000000000000000000000000000000000000000000000000815260206004820152600660248201527f6e6f2077696e00000000000000000000000000000000000000000000000000006044820152fd5b90811580611575575b61156f5761155861155d9161155261154c94600354958680926112ec565b926112ec565b9061136b565b611646565b908082111561156f57611441916112f9565b50505f90565b50801561152e565b90919273ffffffffffffffffffffffffffffffffffffffff6111379481604051957f23b872dd0000000000000000000000000000000000000000000000000000000060208801521660248601521660448401526064830152606482526115e4608483611085565b61168c565b6111379273ffffffffffffffffffffffffffffffffffffffff604051937fa9059cbb0000000000000000000000000000000000000000000000000000000060208601521660248401526044830152604482526115e4606483611085565b801561168757600181018082116104815760011c815b82821061166857505090565b90915061167e82611679818461137e565b6112ec565b60011c9061165c565b505f90565b905f602091828151910182855af115610a7a575f513d61170a575073ffffffffffffffffffffffffffffffffffffffff81163b155b6116c85750565b73ffffffffffffffffffffffffffffffffffffffff907f5274afe7000000000000000000000000000000000000000000000000000000005f521660045260245ffd5b600114156116c156fea164736f6c634300081e000a","linkReferences":{}},"methodIdentifiers":{"buyNo(uint256)":"58c36e5c","buyYes(uint256)":"061dd98d","claim()":"4e71d92d","endTime()":"3197cbb6","k()":"b4f40c61","meta()":"c885044e","noShares(address)":"56bc793e","outcome()":"27793f87","priceNo()":"be0bfb9c","priceYes()":"089ef5e8","qNo()":"2acf1cd2","qYes()":"bfc59601","question()":"3fad9ae0","quoteBuyNo(uint256)":"3e094b8c","quoteBuyYes(uint256)":"386278b6","quoteSellNo(uint256)":"9223539b","quoteSellYes(uint256)":"745917d8","resolve(uint8)":"a0270dbc","sellNo(uint256)":"c545ab54","sellYes(uint256)":"11f957fd","shareScale()":"e2582495","title()":"4a79d50c","usdc()":"3e413bee","yesShares(address)":"818fa941"},"id":32}