{"abi":[{"type":"constructor","inputs":[{"name":"_usdc","type":"address","internalType":"address"},{"name":"_title","type":"string","internalType":"string"},{"name":"_q","type":"string","internalType":"string"},{"name":"_end","type":"uint256","internalType":"uint256"},{"name":"_initialLiquidity","type":"uint256","internalType":"uint256"}],"stateMutability":"nonpayable"},{"type":"function","name":"b","inputs":[],"outputs":[{"name":"","type":"uint256","internalType":"uint256"}],"stateMutability":"view"},{"type":"function","name":"buyNo","inputs":[{"name":"dQ","type":"uint256","internalType":"uint256"}],"outputs":[],"stateMutability":"nonpayable"},{"type":"function","name":"buyYes","inputs":[{"name":"dQ","type":"uint256","internalType":"uint256"}],"outputs":[],"stateMutability":"nonpayable"},{"type":"function","name":"claim","inputs":[],"outputs":[],"stateMutability":"nonpayable"},{"type":"function","name":"endTime","inputs":[],"outputs":[{"name":"","type":"uint256","internalType":"uint256"}],"stateMutability":"view"},{"type":"function","name":"marketState","inputs":[],"outputs":[{"name":"","type":"uint8","internalType":"uint8"}],"stateMutability":"view"},{"type":"function","name":"noShares","inputs":[{"name":"","type":"address","internalType":"address"}],"outputs":[{"name":"","type":"uint256","internalType":"uint256"}],"stateMutability":"view"},{"type":"function","name":"outcome","inputs":[],"outputs":[{"name":"","type":"uint8","internalType":"enum LMSRMarket.Outcome"}],"stateMutability":"view"},{"type":"function","name":"priceNo","inputs":[],"outputs":[{"name":"","type":"uint256","internalType":"uint256"}],"stateMutability":"view"},{"type":"function","name":"priceYes","inputs":[],"outputs":[{"name":"","type":"uint256","internalType":"uint256"}],"stateMutability":"view"},{"type":"function","name":"qNo","inputs":[],"outputs":[{"name":"","type":"uint256","internalType":"uint256"}],"stateMutability":"view"},{"type":"function","name":"qYes","inputs":[],"outputs":[{"name":"","type":"uint256","internalType":"uint256"}],"stateMutability":"view"},{"type":"function","name":"question","inputs":[],"outputs":[{"name":"","type":"string","internalType":"string"}],"stateMutability":"view"},{"type":"function","name":"quoteBuyNo","inputs":[{"name":"dQ","type":"uint256","internalType":"uint256"}],"outputs":[{"name":"","type":"uint256","internalType":"uint256"}],"stateMutability":"view"},{"type":"function","name":"quoteBuyYes","inputs":[{"name":"dQ","type":"uint256","internalType":"uint256"}],"outputs":[{"name":"","type":"uint256","internalType":"uint256"}],"stateMutability":"view"},{"type":"function","name":"quoteSellNo","inputs":[{"name":"dQ","type":"uint256","internalType":"uint256"}],"outputs":[{"name":"","type":"uint256","internalType":"uint256"}],"stateMutability":"view"},{"type":"function","name":"quoteSellYes","inputs":[{"name":"dQ","type":"uint256","internalType":"uint256"}],"outputs":[{"name":"","type":"uint256","internalType":"uint256"}],"stateMutability":"view"},{"type":"function","name":"resolve","inputs":[{"name":"o","type":"uint8","internalType":"enum LMSRMarket.Outcome"}],"outputs":[],"stateMutability":"nonpayable"},{"type":"function","name":"sellNo","inputs":[{"name":"dQ","type":"uint256","internalType":"uint256"}],"outputs":[],"stateMutability":"nonpayable"},{"type":"function","name":"sellYes","inputs":[{"name":"dQ","type":"uint256","internalType":"uint256"}],"outputs":[],"stateMutability":"nonpayable"},{"type":"function","name":"shareScale","inputs":[],"outputs":[{"name":"","type":"uint256","internalType":"uint256"}],"stateMutability":"view"},{"type":"function","name":"title","inputs":[],"outputs":[{"name":"","type":"string","internalType":"string"}],"stateMutability":"view"},{"type":"function","name":"usdc","inputs":[],"outputs":[{"name":"","type":"address","internalType":"contract IERC20"}],"stateMutability":"view"},{"type":"function","name":"yesShares","inputs":[{"name":"","type":"address","internalType":"address"}],"outputs":[{"name":"","type":"uint256","internalType":"uint256"}],"stateMutability":"view"},{"type":"event","name":"Buy","inputs":[{"name":"user","type":"address","indexed":true,"internalType":"address"},{"name":"yes","type":"bool","indexed":false,"internalType":"bool"},{"name":"dQ","type":"uint256","indexed":false,"internalType":"uint256"},{"name":"costUSDC","type":"uint256","indexed":false,"internalType":"uint256"}],"anonymous":false},{"type":"event","name":"Claimed","inputs":[{"name":"user","type":"address","indexed":true,"internalType":"address"},{"name":"amountUSDC","type":"uint256","indexed":false,"internalType":"uint256"}],"anonymous":false},{"type":"event","name":"Resolved","inputs":[{"name":"o","type":"uint8","indexed":false,"internalType":"enum LMSRMarket.Outcome"}],"anonymous":false},{"type":"event","name":"Sell","inputs":[{"name":"user","type":"address","indexed":true,"internalType":"address"},{"name":"yes","type":"bool","indexed":false,"internalType":"bool"},{"name":"dQ","type":"uint256","indexed":false,"internalType":"uint256"},{"name":"refundUSDC","type":"uint256","indexed":false,"internalType":"uint256"}],"anonymous":false},{"type":"error","name":"SafeERC20FailedOperation","inputs":[{"name":"token","type":"address","internalType":"address"}]}],"bytecode":{"object":"0x60c060405234610426576118eb803803806100198161042a565b92833981019060a0818303126104265780516001600160a01b038116908190036104265760208201516001600160401b038111610426578361005c91840161044f565b604083015190936001600160401b0382116104265761007c91840161044f565b91608060608201519101519160ff196008541660085580156103fb5782156103ca574282111561039f5760805283516001600160401b0381116102b3575f54600181811c91168015610395575b602082101461029557601f8111610333575b50602094601f82116001146102d2579481929394955f926102c7575b50508160011b915f199060031b1c1916175f555b82516001600160401b0381116102b357600154600181811c911680156102a9575b602082101461029557601f8111610232575b506020601f82116001146101cf57819293945f926101c4575b50508160011b915f199060031b1c1916176001555b600255600355620f424060a05260405161144a90816104a1823960805181818161020001528181610670015281816107bc0152818161085601528181610b1401528181610ca10152610dc5015260a051816101380152f35b015190505f80610157565b601f1982169060015f52805f20915f5b81811061021a57509583600195969710610202575b505050811b0160015561016c565b01515f1960f88460031b161c191690555f80806101f4565b9192602060018192868b0151815501940192016101df565b60015f527fb10e2d527612073b26eecdfd717e6a320cf44b4afac2b0732d9fcbe2b7fa0cf6601f830160051c8101916020841061028b575b601f0160051c01905b818110610280575061013e565b5f8155600101610273565b909150819061026a565b634e487b7160e01b5f52602260045260245ffd5b90607f169061012c565b634e487b7160e01b5f52604160045260245ffd5b015190505f806100f7565b601f198216955f8052805f20915f5b88811061031b57508360019596979810610303575b505050811b015f5561010b565b01515f1960f88460031b161c191690555f80806102f6565b919260206001819286850151815501940192016102e1565b5f80527f290decd9548b62a8d60345a988386fc84ba6bc95484008f6362f93160ef3e563601f830160051c8101916020841061038b575b601f0160051c01905b81811061038057506100db565b5f8155600101610373565b909150819061036a565b90607f16906100c9565b60405162461bcd60e51b8152602060048201526003602482015262195b9960ea1b6044820152606490fd5b60405162461bcd60e51b81526020600482015260096024820152686c697175696469747960b81b6044820152606490fd5b606460405162461bcd60e51b81526020600482015260046024820152637573646360e01b6044820152fd5b5f80fd5b6040519190601f01601f191682016001600160401b038111838210176102b357604052565b81601f82011215610426578051906001600160401b0382116102b35761047e601f8301601f191660200161042a565b928284526020838301011161042657815f9260208093018386015e830101529056fe60806040526004361015610011575f80fd5b5f3560e01c8063061dd98d14610d61578063089ef5e814610d4757806308fb1b7714610d2257806311f957fd14610c1357806327793f8714610bee5780632acf1cd214610bd15780633197cbb614610bb4578063386278b614610b735780633e094b8c14610b385780633e413bee14610ae85780633fad9ae014610a2d5780634a79d50c146108f55780634df7e3d0146108d85780634e71d92d1461074857806356bc793e1461070057806358c36e5c146105fa578063745917d8146105a6578063818fa9411461055e5780639223539b14610508578063a0270dbc14610333578063be0bfb9c146102ca578063bfc59601146102ad578063c545ab541461015f5763e258249514610121575f80fd5b3461015b575f60031936011261015b5760206040517f00000000000000000000000000000000000000000000000000000000000000008152f35b5f80fd5b3461015b57602060031936011261015b5760043560ff600854166003811015610280571580610275575b61019290610f1f565b8015158061025d575b6101a490611170565b6101d16004546101cb600554916101c5856101bf858461123a565b94610ff6565b9061123a565b90610ff6565b335f52600760205260405f206101e8838254610ff6565b90556101f682600554610ff6565b60055561022481337f0000000000000000000000000000000000000000000000000000000000000000611308565b604051915f8352602083015260408201527f6ef2400e3559d8a9ff41d96e963ff23b7be0270529ffea64fee0747fb7f29e8560603392a2005b50335f9081526007602052604090205481111561019b565b506002544210610189565b7f4e487b71000000000000000000000000000000000000000000000000000000005f52602160045260245ffd5b3461015b575f60031936011261015b576020600454604051908152f35b3461015b575f60031936011261015b576102e261109f565b670de0b6b3a764000003670de0b6b3a7640000811161030657602090604051908152f35b7f4e487b71000000000000000000000000000000000000000000000000000000005f52601160045260245ffd5b3461015b57602060031936011261015b57600435600381101561015b5760025442106104aa5760085460ff811660038110156102805761044c575f600183148015610440575b156103e257610280577fffffffffffffffffffffffffffffffffffffffffffffffffffffffffffffff001660ff8216176008556040517f5e186f09b9c93491f14e277eea7faa5de6a2d4bda75a79af7a3684fbfb42da609181906103dd9082610e56565b0390a1005b60646040517f08c379a000000000000000000000000000000000000000000000000000000000815260206004820152600360248201527f62616400000000000000000000000000000000000000000000000000000000006044820152fd5b50505f60028314610379565b60646040517f08c379a000000000000000000000000000000000000000000000000000000000815260206004820152600860248201527f7265736f6c7665640000000000000000000000000000000000000000000000006044820152fd5b60646040517f08c379a000000000000000000000000000000000000000000000000000000000815260206004820152600960248201527f6e6f7420656e64656400000000000000000000000000000000000000000000006044820152fd5b3461015b57602060031936011261015b57602061054a60043580151580610552575b61053390610f84565b6101cb6004546101c5600554936101bf858461123a565b604051908152f35b5060055481111561052a565b3461015b57602060031936011261015b5760043573ffffffffffffffffffffffffffffffffffffffff811680910361015b575f526006602052602060405f2054604051908152f35b3461015b57602060031936011261015b57602061054a600435801515806105ee575b6105d190610f84565b6101cb600454916105e9600554916101bf838661123a565b61123a565b506004548111156105c8565b3461015b57602060031936011261015b5760043560ff6008541660038110156102805715806106f5575b61062d90610f1f565b610638811515610f84565b61065d6004546101cb6005546106576106518683610fe9565b8461123a565b9261123a565b610668811515611003565b6106948130337f000000000000000000000000000000000000000000000000000000000000000061129a565b6106a082600554610fe9565b600555335f52600760205260405f206106ba838254610fe9565b9055604051915f8352602083015260408201527fe417997ad0a1c7dd102d3158fdf23af437ae25ed1926b1b069dc8e436fd16fb660603392a2005b506002544210610624565b3461015b57602060031936011261015b5760043573ffffffffffffffffffffffffffffffffffffffff811680910361015b575f526007602052602060405f2054604051908152f35b3461015b575f60031936011261015b5760ff60085416600381101561028057801561087a5760010361080e57335f52600660205260405f2054801561078d81156111d5565b335f5260066020525f6040812055620f42408202918204620f424014171561030657620f424090046107e081337f0000000000000000000000000000000000000000000000000000000000000000611308565b6040519081527fd8138f8a3f377c5259ca548e70e4c2de94f129f5a11036a15b69513cba2b426a60203392a2005b335f52600760205260405f2054801561082781156111d5565b335f5260076020525f6040812055620f42408202918204620f424014171561030657620f424090046107e081337f0000000000000000000000000000000000000000000000000000000000000000611308565b60646040517f08c379a000000000000000000000000000000000000000000000000000000000815260206004820152600a60248201527f756e7265736f6c766564000000000000000000000000000000000000000000006044820152fd5b3461015b575f60031936011261015b576020600354604051908152f35b3461015b575f60031936011261015b576040515f5f548060011c90600181168015610a23575b6020831081146109f6578285529081156109b45750600114610958575b6109548361094881850382610e69565b60405191829182610ed7565b0390f35b5f8080527f290decd9548b62a8d60345a988386fc84ba6bc95484008f6362f93160ef3e563939250905b80821061099a57509091508101602001610948610938565b919260018160209254838588010152019101909291610982565b7fffffffffffffffffffffffffffffffffffffffffffffffffffffffffffffff001660208086019190915291151560051b840190910191506109489050610938565b7f4e487b71000000000000000000000000000000000000000000000000000000005f52602260045260245ffd5b91607f169161091b565b3461015b575f60031936011261015b576040515f6001548060011c90600181168015610ade575b6020831081146109f6578285529081156109b45750600114610a80576109548361094881850382610e69565b60015f9081527fb10e2d527612073b26eecdfd717e6a320cf44b4afac2b0732d9fcbe2b7fa0cf6939250905b808210610ac457509091508101602001610948610938565b919260018160209254838588010152019101909291610aac565b91607f1691610a54565b3461015b575f60031936011261015b57602060405173ffffffffffffffffffffffffffffffffffffffff7f0000000000000000000000000000000000000000000000000000000000000000168152f35b3461015b57602060031936011261015b57602061054a600435610b5c811515610f84565b6101cb600454916106576106516005549283610fe9565b3461015b57602060031936011261015b57602061054a600435610b97811515610f84565b6101cb610ba76004549283610fe9565b610657600554809261123a565b3461015b575f60031936011261015b576020600254604051908152f35b3461015b575f60031936011261015b576020600554604051908152f35b3461015b575f60031936011261015b5761095460ff6008541660405191829182610e56565b3461015b57602060031936011261015b5760043560ff600854166003811015610280571580610d17575b610c4690610f1f565b80151580610cff575b610c5890611170565b610c726004546101cb6005546105e9856101bf838661123a565b335f52600660205260405f20610c89838254610ff6565b9055610c9782600454610ff6565b600455610cc581337f0000000000000000000000000000000000000000000000000000000000000000611308565b6040519160018352602083015260408201527f6ef2400e3559d8a9ff41d96e963ff23b7be0270529ffea64fee0747fb7f29e8560603392a2005b50335f90815260066020526040902054811115610c4f565b506002544210610c3d565b3461015b575f60031936011261015b576020610d3c611145565b60ff60405191168152f35b3461015b575f60031936011261015b57602061054a61109f565b3461015b57602060031936011261015b5760043560ff600854166003811015610280571580610e4b575b610d9490610f1f565b610d9f811515610f84565b610db26004546101cb610ba78483610fe9565b610dbd811515611003565b610de98130337f000000000000000000000000000000000000000000000000000000000000000061129a565b610df582600454610fe9565b600455335f52600660205260405f20610e0f838254610fe9565b90556040519160018352602083015260408201527fe417997ad0a1c7dd102d3158fdf23af437ae25ed1926b1b069dc8e436fd16fb660603392a2005b506002544210610d8b565b9190602083019260038210156102805752565b90601f7fffffffffffffffffffffffffffffffffffffffffffffffffffffffffffffffe0910116810190811067ffffffffffffffff821117610eaa57604052565b7f4e487b71000000000000000000000000000000000000000000000000000000005f52604160045260245ffd5b7fffffffffffffffffffffffffffffffffffffffffffffffffffffffffffffffe0601f602060409481855280519182918282880152018686015e5f8582860101520116010190565b15610f2657565b60646040517f08c379a000000000000000000000000000000000000000000000000000000000815260206004820152600660248201527f636c6f73656400000000000000000000000000000000000000000000000000006044820152fd5b15610f8b57565b60646040517f08c379a000000000000000000000000000000000000000000000000000000000815260206004820152600260248201527f64510000000000000000000000000000000000000000000000000000000000006044820152fd5b9190820180921161030657565b9190820391821161030657565b1561100a57565b60646040517f08c379a000000000000000000000000000000000000000000000000000000000815260206004820152600460248201527f64757374000000000000000000000000000000000000000000000000000000006044820152fd5b8115611072570490565b7f4e487b71000000000000000000000000000000000000000000000000000000005f52601260045260245ffd5b60045480158061113b575b61112e57600354906110bc8282610fe9565b90670de0b6b3a7640000820291808304670de0b6b3a76400001490151715610306576005546110ea91610fe9565b917f7fffffffffffffffffffffffffffffffffffffffffffffffffffffffffffffff811681036103065761112b926111259160011b90610fe9565b90611068565b90565b506706f05b59d3b2000090565b50600554156110aa565b60ff6008541660038110156102805761116b57600254421061116657600190565b600190565b600290565b1561117757565b60646040517f08c379a000000000000000000000000000000000000000000000000000000000815260206004820152600660248201527f73686172657300000000000000000000000000000000000000000000000000006044820152fd5b156111dc57565b60646040517f08c379a000000000000000000000000000000000000000000000000000000000815260206004820152600660248201527f6e6f2077696e00000000000000000000000000000000000000000000000000006044820152fd5b90811580611292575b61128c5761126061125a9260035493848092610fe9565b92610fe9565b908181029181830414901517156103065761127a90611365565b908082111561128c5761112b91610ff6565b50505f90565b508015611243565b90919273ffffffffffffffffffffffffffffffffffffffff6113069481604051957f23b872dd000000000000000000000000000000000000000000000000000000006020880152166024860152166044840152606483015260648252611301608483610e69565b6113ab565b565b6113069273ffffffffffffffffffffffffffffffffffffffff604051937fa9059cbb000000000000000000000000000000000000000000000000000000006020860152166024840152604483015260448252611301606483610e69565b80156113a657600181018082116103065760011c815b82821061138757505090565b90915061139d826113988184611068565b610fe9565b60011c9061137b565b505f90565b905f602091828151910182855af115611432575f513d611429575073ffffffffffffffffffffffffffffffffffffffff81163b155b6113e75750565b73ffffffffffffffffffffffffffffffffffffffff907f5274afe7000000000000000000000000000000000000000000000000000000005f521660045260245ffd5b600114156113e0565b6040513d5f823e3d90fdfea164736f6c634300081e000a","linkReferences":{}},"methodIdentifiers":{"b()":"4df7e3d0","buyNo(uint256)":"58c36e5c","buyYes(uint256)":"061dd98d","claim()":"4e71d92d","endTime()":"3197cbb6","marketState()":"08fb1b77","noShares(address)":"56bc793e","outcome()":"27793f87","priceNo()":"be0bfb9c","priceYes()":"089ef5e8","qNo()":"2acf1cd2","qYes()":"bfc59601","question()":"3fad9ae0","quoteBuyNo(uint256)":"3e094b8c","quoteBuyYes(uint256)":"386278b6","quoteSellNo(uint256)":"9223539b","quoteSellYes(uint256)":"745917d8","resolve(uint8)":"a0270dbc","sellNo(uint256)":"c545ab54","sellYes(uint256)":"11f957fd","shareScale()":"e2582495","title()":"4a79d50c","usdc()":"3e413bee","yesShares(address)":"818fa941"},"id":29}