{"abi":[{"type":"constructor","inputs":[{"name":"_symbol","type":"string","internalType":"string"},{"name":"_market","type":"address","internalType":"address"}],"stateMutability":"nonpayable"},{"type":"function","name":"allowance","inputs":[{"name":"","type":"address","internalType":"address"},{"name":"","type":"address","internalType":"address"}],"outputs":[{"name":"","type":"uint256","internalType":"uint256"}],"stateMutability":"view"},{"type":"function","name":"approve","inputs":[{"name":"spender","type":"address","internalType":"address"},{"name":"amount","type":"uint256","internalType":"uint256"}],"outputs":[{"name":"","type":"bool","internalType":"bool"}],"stateMutability":"nonpayable"},{"type":"function","name":"balanceOf","inputs":[{"name":"","type":"address","internalType":"address"}],"outputs":[{"name":"","type":"uint256","internalType":"uint256"}],"stateMutability":"view"},{"type":"function","name":"burn","inputs":[{"name":"from","type":"address","internalType":"address"},{"name":"amount","type":"uint256","internalType":"uint256"}],"outputs":[],"stateMutability":"nonpayable"},{"type":"function","name":"decimals","inputs":[],"outputs":[{"name":"","type":"uint8","internalType":"uint8"}],"stateMutability":"view"},{"type":"function","name":"market","inputs":[],"outputs":[{"name":"","type":"address","internalType":"address"}],"stateMutability":"view"},{"type":"function","name":"mint","inputs":[{"name":"to","type":"address","internalType":"address"},{"name":"amount","type":"uint256","internalType":"uint256"}],"outputs":[],"stateMutability":"nonpayable"},{"type":"function","name":"symbol","inputs":[],"outputs":[{"name":"","type":"string","internalType":"string"}],"stateMutability":"view"},{"type":"function","name":"totalSupply","inputs":[],"outputs":[{"name":"","type":"uint256","internalType":"uint256"}],"stateMutability":"view"},{"type":"function","name":"transfer","inputs":[{"name":"to","type":"address","internalType":"address"},{"name":"amount","type":"uint256","internalType":"uint256"}],"outputs":[{"name":"","type":"bool","internalType":"bool"}],"stateMutability":"nonpayable"},{"type":"function","name":"transferFrom","inputs":[{"name":"from","type":"address","internalType":"address"},{"name":"to","type":"address","internalType":"address"},{"name":"amount","type":"uint256","internalType":"uint256"}],"outputs":[{"name":"","type":"bool","internalType":"bool"}],"stateMutability":"nonpayable"},{"type":"event","name":"Approval","inputs":[{"name":"owner","type":"address","indexed":true,"internalType":"address"},{"name":"spender","type":"address","indexed":true,"internalType":"address"},{"name":"value","type":"uint256","indexed":false,"internalType":"uint256"}],"anonymous":false},{"type":"event","name":"Transfer","inputs":[{"name":"from","type":"address","indexed":true,"internalType":"address"},{"name":"to","type":"address","indexed":true,"internalType":"address"},{"name":"value","type":"uint256","indexed":false,"internalType":"uint256"}],"anonymous":false}],"bytecode":{"object":"0x608060405234801561000f575f5ffd5b506040516116853803806116858339818101604052810190610031919061022e565b815f908161003f9190610498565b508060045f6101000a81548173ffffffffffffffffffffffffffffffffffffffff021916908373ffffffffffffffffffffffffffffffffffffffff1602179055505050610567565b5f604051905090565b5f5ffd5b5f5ffd5b5f5ffd5b5f5ffd5b5f601f19601f8301169050919050565b7f4e487b71000000000000000000000000000000000000000000000000000000005f52604160045260245ffd5b6100e6826100a0565b810181811067ffffffffffffffff82111715610105576101046100b0565b5b80604052505050565b5f610117610087565b905061012382826100dd565b919050565b5f67ffffffffffffffff821115610142576101416100b0565b5b61014b826100a0565b9050602081019050919050565b8281835e5f83830152505050565b5f61017861017384610128565b61010e565b9050828152602081018484840111156101945761019361009c565b5b61019f848285610158565b509392505050565b5f82601f8301126101bb576101ba610098565b5b81516101cb848260208601610166565b91505092915050565b5f73ffffffffffffffffffffffffffffffffffffffff82169050919050565b5f6101fd826101d4565b9050919050565b61020d816101f3565b8114610217575f5ffd5b50565b5f8151905061022881610204565b92915050565b5f5f6040838503121561024457610243610090565b5b5f83015167ffffffffffffffff81111561026157610260610094565b5b61026d858286016101a7565b925050602061027e8582860161021a565b9150509250929050565b5f81519050919050565b7f4e487b71000000000000000000000000000000000000000000000000000000005f52602260045260245ffd5b5f60028204905060018216806102d657607f821691505b6020821081036102e9576102e8610292565b5b50919050565b5f819050815f5260205f209050919050565b5f6020601f8301049050919050565b5f82821b905092915050565b5f6008830261034b7fffffffffffffffffffffffffffffffffffffffffffffffffffffffffffffffff82610310565b6103558683610310565b95508019841693508086168417925050509392505050565b5f819050919050565b5f819050919050565b5f61039961039461038f8461036d565b610376565b61036d565b9050919050565b5f819050919050565b6103b28361037f565b6103c66103be826103a0565b84845461031c565b825550505050565b5f5f905090565b6103dd6103ce565b6103e88184846103a9565b505050565b5b8181101561040b576104005f826103d5565b6001810190506103ee565b5050565b601f82111561045057610421816102ef565b61042a84610301565b81016020851015610439578190505b61044d61044585610301565b8301826103ed565b50505b505050565b5f82821c905092915050565b5f6104705f1984600802610455565b1980831691505092915050565b5f6104888383610461565b9150826002028217905092915050565b6104a182610288565b67ffffffffffffffff8111156104ba576104b96100b0565b5b6104c482546102bf565b6104cf82828561040f565b5f60209050601f831160018114610500575f84156104ee578287015190505b6104f8858261047d565b86555061055f565b601f19841661050e866102ef565b5f5b8281101561053557848901518255600182019150602085019450602081019050610510565b86831015610552578489015161054e601f891682610461565b8355505b6001600288020188555050505b505050505050565b611111806105745f395ff3fe608060405234801561000f575f5ffd5b50600436106100a7575f3560e01c806370a082311161006f57806370a082311461016357806380f556051461019357806395d89b41146101b15780639dc29fac146101cf578063a9059cbb146101eb578063dd62ed3e1461021b576100a7565b8063095ea7b3146100ab57806318160ddd146100db57806323b872dd146100f9578063313ce5671461012957806340c10f1914610147575b5f5ffd5b6100c560048036038101906100c09190610c75565b61024b565b6040516100d29190610ccd565b60405180910390f35b6100e3610338565b6040516100f09190610cf5565b60405180910390f35b610113600480360381019061010e9190610d0e565b61033e565b6040516101209190610ccd565b60405180910390f35b61013161061e565b60405161013e9190610d79565b60405180910390f35b610161600480360381019061015c9190610c75565b610623565b005b61017d60048036038101906101789190610d92565b610786565b60405161018a9190610cf5565b60405180910390f35b61019b61079b565b6040516101a89190610dcc565b60405180910390f35b6101b96107c0565b6040516101c69190610e55565b60405180910390f35b6101e960048036038101906101e49190610c75565b61084b565b005b61020560048036038101906102009190610c75565b610a2e565b6040516102129190610ccd565b60405180910390f35b61023560048036038101906102309190610e75565b610bc4565b6040516102429190610cf5565b60405180910390f35b5f8160035f3373ffffffffffffffffffffffffffffffffffffffff1673ffffffffffffffffffffffffffffffffffffffff1681526020019081526020015f205f8573ffffffffffffffffffffffffffffffffffffffff1673ffffffffffffffffffffffffffffffffffffffff1681526020019081526020015f20819055508273ffffffffffffffffffffffffffffffffffffffff163373ffffffffffffffffffffffffffffffffffffffff167f8c5be1e5ebec7d5bd14f71427d1e84f3dd0314c0f7b2291e5b200ac8c7c3b925846040516103269190610cf5565b60405180910390a36001905092915050565b60015481565b5f8160025f8673ffffffffffffffffffffffffffffffffffffffff1673ffffffffffffffffffffffffffffffffffffffff1681526020019081526020015f205410156103bf576040517f08c379a00000000000000000000000000000000000000000000000000000000081526004016103b690610efd565b60405180910390fd5b8160035f8673ffffffffffffffffffffffffffffffffffffffff1673ffffffffffffffffffffffffffffffffffffffff1681526020019081526020015f205f3373ffffffffffffffffffffffffffffffffffffffff1673ffffffffffffffffffffffffffffffffffffffff1681526020019081526020015f2054101561047a576040517f08c379a000000000000000000000000000000000000000000000000000000000815260040161047190610f65565b60405180910390fd5b8160025f8673ffffffffffffffffffffffffffffffffffffffff1673ffffffffffffffffffffffffffffffffffffffff1681526020019081526020015f205f8282546104c69190610fb0565b925050819055508160025f8573ffffffffffffffffffffffffffffffffffffffff1673ffffffffffffffffffffffffffffffffffffffff1681526020019081526020015f205f8282546105199190610fe3565b925050819055508160035f8673ffffffffffffffffffffffffffffffffffffffff1673ffffffffffffffffffffffffffffffffffffffff1681526020019081526020015f205f3373ffffffffffffffffffffffffffffffffffffffff1673ffffffffffffffffffffffffffffffffffffffff1681526020019081526020015f205f8282546105a79190610fb0565b925050819055508273ffffffffffffffffffffffffffffffffffffffff168473ffffffffffffffffffffffffffffffffffffffff167fddf252ad1be2c89b69c2b068fc378daa952ba7f163c4a11628f55a4df523b3ef8460405161060b9190610cf5565b60405180910390a3600190509392505050565b601281565b60045f9054906101000a900473ffffffffffffffffffffffffffffffffffffffff1673ffffffffffffffffffffffffffffffffffffffff163373ffffffffffffffffffffffffffffffffffffffff16146106b2576040517f08c379a00000000000000000000000000000000000000000000000000000000081526004016106a990611060565b60405180910390fd5b8060015f8282546106c39190610fe3565b925050819055508060025f8473ffffffffffffffffffffffffffffffffffffffff1673ffffffffffffffffffffffffffffffffffffffff1681526020019081526020015f205f8282546107169190610fe3565b925050819055508173ffffffffffffffffffffffffffffffffffffffff165f73ffffffffffffffffffffffffffffffffffffffff167fddf252ad1be2c89b69c2b068fc378daa952ba7f163c4a11628f55a4df523b3ef8360405161077a9190610cf5565b60405180910390a35050565b6002602052805f5260405f205f915090505481565b60045f9054906101000a900473ffffffffffffffffffffffffffffffffffffffff1681565b5f80546107cc906110ab565b80601f01602080910402602001604051908101604052809291908181526020018280546107f8906110ab565b80156108435780601f1061081a57610100808354040283529160200191610843565b820191905f5260205f20905b81548152906001019060200180831161082657829003601f168201915b505050505081565b60045f9054906101000a900473ffffffffffffffffffffffffffffffffffffffff1673ffffffffffffffffffffffffffffffffffffffff163373ffffffffffffffffffffffffffffffffffffffff16146108da576040517f08c379a00000000000000000000000000000000000000000000000000000000081526004016108d190611060565b60405180910390fd5b8060025f8473ffffffffffffffffffffffffffffffffffffffff1673ffffffffffffffffffffffffffffffffffffffff1681526020019081526020015f2054101561095a576040517f08c379a000000000000000000000000000000000000000000000000000000000815260040161095190610efd565b60405180910390fd5b8060015f82825461096b9190610fb0565b925050819055508060025f8473ffffffffffffffffffffffffffffffffffffffff1673ffffffffffffffffffffffffffffffffffffffff1681526020019081526020015f205f8282546109be9190610fb0565b925050819055505f73ffffffffffffffffffffffffffffffffffffffff168273ffffffffffffffffffffffffffffffffffffffff167fddf252ad1be2c89b69c2b068fc378daa952ba7f163c4a11628f55a4df523b3ef83604051610a229190610cf5565b60405180910390a35050565b5f8160025f3373ffffffffffffffffffffffffffffffffffffffff1673ffffffffffffffffffffffffffffffffffffffff1681526020019081526020015f20541015610aaf576040517f08c379a0000000000000000000000000000000000000000000000000000000008152600401610aa690610efd565b60405180910390fd5b8160025f3373ffffffffffffffffffffffffffffffffffffffff1673ffffffffffffffffffffffffffffffffffffffff1681526020019081526020015f205f828254610afb9190610fb0565b925050819055508160025f8573ffffffffffffffffffffffffffffffffffffffff1673ffffffffffffffffffffffffffffffffffffffff1681526020019081526020015f205f828254610b4e9190610fe3565b925050819055508273ffffffffffffffffffffffffffffffffffffffff163373ffffffffffffffffffffffffffffffffffffffff167fddf252ad1be2c89b69c2b068fc378daa952ba7f163c4a11628f55a4df523b3ef84604051610bb29190610cf5565b60405180910390a36001905092915050565b6003602052815f5260405f20602052805f5260405f205f91509150505481565b5f5ffd5b5f73ffffffffffffffffffffffffffffffffffffffff82169050919050565b5f610c1182610be8565b9050919050565b610c2181610c07565b8114610c2b575f5ffd5b50565b5f81359050610c3c81610c18565b92915050565b5f819050919050565b610c5481610c42565b8114610c5e575f5ffd5b50565b5f81359050610c6f81610c4b565b92915050565b5f5f60408385031215610c8b57610c8a610be4565b5b5f610c9885828601610c2e565b9250506020610ca985828601610c61565b9150509250929050565b5f8115159050919050565b610cc781610cb3565b82525050565b5f602082019050610ce05f830184610cbe565b92915050565b610cef81610c42565b82525050565b5f602082019050610d085f830184610ce6565b92915050565b5f5f5f60608486031215610d2557610d24610be4565b5b5f610d3286828701610c2e565b9350506020610d4386828701610c2e565b9250506040610d5486828701610c61565b9150509250925092565b5f60ff82169050919050565b610d7381610d5e565b82525050565b5f602082019050610d8c5f830184610d6a565b92915050565b5f60208284031215610da757610da6610be4565b5b5f610db484828501610c2e565b91505092915050565b610dc681610c07565b82525050565b5f602082019050610ddf5f830184610dbd565b92915050565b5f81519050919050565b5f82825260208201905092915050565b8281835e5f83830152505050565b5f601f19601f8301169050919050565b5f610e2782610de5565b610e318185610def565b9350610e41818560208601610dff565b610e4a81610e0d565b840191505092915050565b5f6020820190508181035f830152610e6d8184610e1d565b905092915050565b5f5f60408385031215610e8b57610e8a610be4565b5b5f610e9885828601610c2e565b9250506020610ea985828601610c2e565b9150509250929050565b7f496e73756666696369656e742062616c616e63650000000000000000000000005f82015250565b5f610ee7601483610def565b9150610ef282610eb3565b602082019050919050565b5f6020820190508181035f830152610f1481610edb565b9050919050565b7f496e73756666696369656e7420616c6c6f77616e6365000000000000000000005f82015250565b5f610f4f601683610def565b9150610f5a82610f1b565b602082019050919050565b5f6020820190508181035f830152610f7c81610f43565b9050919050565b7f4e487b71000000000000000000000000000000000000000000000000000000005f52601160045260245ffd5b5f610fba82610c42565b9150610fc583610c42565b9250828203905081811115610fdd57610fdc610f83565b5b92915050565b5f610fed82610c42565b9150610ff883610c42565b92508282019050808211156110105761100f610f83565b5b92915050565b7f4f6e6c79206d61726b65742063616e2063616c6c0000000000000000000000005f82015250565b5f61104a601483610def565b915061105582611016565b602082019050919050565b5f6020820190508181035f8301526110778161103e565b9050919050565b7f4e487b71000000000000000000000000000000000000000000000000000000005f52602260045260245ffd5b5f60028204905060018216806110c257607f821691505b6020821081036110d5576110d461107e565b5b5091905056fea26469706673582212204d15ce8194b35df19cf2ee6ccf2d5e38f96274f23c4d80f4822e7b202ef8183064736f6c634300081e0033","linkReferences":{}},"methodIdentifiers":{"allowance(address,address)":"dd62ed3e","approve(address,uint256)":"095ea7b3","balanceOf(address)":"70a08231","burn(address,uint256)":"9dc29fac","decimals()":"313ce567","market()":"80f55605","mint(address,uint256)":"40c10f19","symbol()":"95d89b41","totalSupply()":"18160ddd","transfer(address,uint256)":"a9059cbb","transferFrom(address,address,uint256)":"23b872dd"},"id":23}