{"abi":[{"type":"constructor","inputs":[{"name":"_symbol","type":"string","internalType":"string"},{"name":"_market","type":"address","internalType":"address"}],"stateMutability":"nonpayable"},{"type":"function","name":"allowance","inputs":[{"name":"","type":"address","internalType":"address"},{"name":"","type":"address","internalType":"address"}],"outputs":[{"name":"","type":"uint256","internalType":"uint256"}],"stateMutability":"view"},{"type":"function","name":"approve","inputs":[{"name":"spender","type":"address","internalType":"address"},{"name":"amount","type":"uint256","internalType":"uint256"}],"outputs":[{"name":"","type":"bool","internalType":"bool"}],"stateMutability":"nonpayable"},{"type":"function","name":"balanceOf","inputs":[{"name":"","type":"address","internalType":"address"}],"outputs":[{"name":"","type":"uint256","internalType":"uint256"}],"stateMutability":"view"},{"type":"function","name":"burn","inputs":[{"name":"from","type":"address","internalType":"address"},{"name":"amount","type":"uint256","internalType":"uint256"}],"outputs":[],"stateMutability":"nonpayable"},{"type":"function","name":"decimals","inputs":[],"outputs":[{"name":"","type":"uint8","internalType":"uint8"}],"stateMutability":"view"},{"type":"function","name":"market","inputs":[],"outputs":[{"name":"","type":"address","internalType":"address"}],"stateMutability":"view"},{"type":"function","name":"mint","inputs":[{"name":"to","type":"address","internalType":"address"},{"name":"amount","type":"uint256","internalType":"uint256"}],"outputs":[],"stateMutability":"nonpayable"},{"type":"function","name":"symbol","inputs":[],"outputs":[{"name":"","type":"string","internalType":"string"}],"stateMutability":"view"},{"type":"function","name":"totalSupply","inputs":[],"outputs":[{"name":"","type":"uint256","internalType":"uint256"}],"stateMutability":"view"},{"type":"function","name":"transfer","inputs":[{"name":"to","type":"address","internalType":"address"},{"name":"amount","type":"uint256","internalType":"uint256"}],"outputs":[{"name":"","type":"bool","internalType":"bool"}],"stateMutability":"nonpayable"},{"type":"function","name":"transferFrom","inputs":[{"name":"from","type":"address","internalType":"address"},{"name":"to","type":"address","internalType":"address"},{"name":"amount","type":"uint256","internalType":"uint256"}],"outputs":[{"name":"","type":"bool","internalType":"bool"}],"stateMutability":"nonpayable"},{"type":"event","name":"Approval","inputs":[{"name":"owner","type":"address","indexed":true,"internalType":"address"},{"name":"spender","type":"address","indexed":true,"internalType":"address"},{"name":"value","type":"uint256","indexed":false,"internalType":"uint256"}],"anonymous":false},{"type":"event","name":"Transfer","inputs":[{"name":"from","type":"address","indexed":true,"internalType":"address"},{"name":"to","type":"address","indexed":true,"internalType":"address"},{"name":"value","type":"uint256","indexed":false,"internalType":"uint256"}],"anonymous":false}],"bytecode":{"object":"0x60806040523461021f57610b728038038061001981610223565b92833981019060408183031261021f5780516001600160401b03811161021f5781019082601f8301121561021f5781516001600160401b03811161020b5761006a601f8201601f1916602001610223565b938185526020828501011161021f576020815f92828096018388015e8501015201516001600160a01b0381169081900361021f5781516001600160401b03811161020b575f54600181811c91168015610201575b60208210146101ed57601f811161018b575b50602092601f821160011461012c57928192935f92610121575b50508160011b915f199060031b1c1916175f555b600480546001600160a01b03191691909117905560405161092990816102498239f35b015190505f806100ea565b601f198216935f8052805f20915f5b868110610173575083600195961061015b575b505050811b015f556100fe565b01515f1960f88460031b161c191690555f808061014e565b9192602060018192868501518155019401920161013b565b5f80527f290decd9548b62a8d60345a988386fc84ba6bc95484008f6362f93160ef3e563601f830160051c810191602084106101e3575b601f0160051c01905b8181106101d857506100d0565b5f81556001016101cb565b90915081906101c2565b634e487b7160e01b5f52602260045260245ffd5b90607f16906100be565b634e487b7160e01b5f52604160045260245ffd5b5f80fd5b6040519190601f01601f191682016001600160401b0381118382101761020b5760405256fe60806040526004361015610011575f80fd5b5f3560e01c8063095ea7b31461074057806318160ddd1461072357806323b872dd1461058a578063313ce5671461056f57806340c10f19146104e357806370a082311461049e57806380f556051461046b57806395d89b41146102675780639dc29fac146101b9578063a9059cbb146101045763dd62ed3e14610092575f80fd5b34610100576040600319360112610100576100ab6107c5565b73ffffffffffffffffffffffffffffffffffffffff6100c86107e8565b91165f52600360205273ffffffffffffffffffffffffffffffffffffffff60405f2091165f52602052602060405f2054604051908152f35b5f80fd5b346101005760406003193601126101005761011d6107c5565b73ffffffffffffffffffffffffffffffffffffffff60243591335f52600260205261014e8360405f2054101561080b565b335f52600260205260405f20610165848254610870565b90551690815f52600260205260405f206101808282546108aa565b90556040519081527fddf252ad1be2c89b69c2b068fc378daa952ba7f163c4a11628f55a4df523b3ef60203392a3602060405160018152f35b34610100576040600319360112610100575f6101d36107c5565b7fddf252ad1be2c89b69c2b068fc378daa952ba7f163c4a11628f55a4df523b3ef602073ffffffffffffffffffffffffffffffffffffffff6024359361021e826004541633146108b7565b169283855260028252610237816040872054101561080b565b61024381600154610870565b600155838552600282526040852061025c828254610870565b9055604051908152a3005b34610100575f600319360112610100576040515f5f548060011c9160018216928315610463575b602081108414610436578085526020850193859381156103df5750600114610367575b5003601f017fffffffffffffffffffffffffffffffffffffffffffffffffffffffffffffffe01682019167ffffffffffffffff83118184101761033a577fffffffffffffffffffffffffffffffffffffffffffffffffffffffffffffffe0601f6040938593848652602085525180918160208701528686015e5f85828601015201168101030190f35b7f4e487b71000000000000000000000000000000000000000000000000000000005f52604160045260245ffd5b5f80805291507f290decd9548b62a8d60345a988386fc84ba6bc95484008f6362f93160ef3e5635b8183106103c357505081016020017fffffffffffffffffffffffffffffffffffffffffffffffffffffffffffffffe06102b1565b602091935080600191548385890101520191019091849261038f565b7fffffffffffffffffffffffffffffffffffffffffffffffffffffffffffffff0016855250151560051b820160200190507fffffffffffffffffffffffffffffffffffffffffffffffffffffffffffffffe06102b1565b7f4e487b71000000000000000000000000000000000000000000000000000000005f52602260045260245ffd5b607f1661028e565b34610100575f60031936011261010057602073ffffffffffffffffffffffffffffffffffffffff60045416604051908152f35b346101005760206003193601126101005773ffffffffffffffffffffffffffffffffffffffff6104cc6107c5565b165f526002602052602060405f2054604051908152f35b34610100576040600319360112610100576104fc6107c5565b5f7fddf252ad1be2c89b69c2b068fc378daa952ba7f163c4a11628f55a4df523b3ef602073ffffffffffffffffffffffffffffffffffffffff60243594610548826004541633146108b7565b610554866001546108aa565b6001551693848452600282526040842061025c8282546108aa565b34610100575f60031936011261010057602060405160128152f35b34610100576060600319360112610100576105a36107c5565b6105ab6107e8565b73ffffffffffffffffffffffffffffffffffffffff604435921690815f5260026020526105de8360405f2054101561080b565b815f52600360205260405f2073ffffffffffffffffffffffffffffffffffffffff33165f526020528260405f2054106106c557602073ffffffffffffffffffffffffffffffffffffffff7fddf252ad1be2c89b69c2b068fc378daa952ba7f163c4a11628f55a4df523b3ef92845f526002835260405f20610660878254610870565b90551693845f526002825260405f2061067a8282546108aa565b9055835f526003825260405f2073ffffffffffffffffffffffffffffffffffffffff33165f52825260405f206106b1828254610870565b9055604051908152a3602060405160018152f35b60646040517f08c379a000000000000000000000000000000000000000000000000000000000815260206004820152601660248201527f496e73756666696369656e7420616c6c6f77616e6365000000000000000000006044820152fd5b34610100575f600319360112610100576020600154604051908152f35b34610100576040600319360112610100576107596107c5565b73ffffffffffffffffffffffffffffffffffffffff60243591335f52600360205260405f208282165f526020528260405f205560405192835216907f8c5be1e5ebec7d5bd14f71427d1e84f3dd0314c0f7b2291e5b200ac8c7c3b92560203392a3602060405160018152f35b6004359073ffffffffffffffffffffffffffffffffffffffff8216820361010057565b6024359073ffffffffffffffffffffffffffffffffffffffff8216820361010057565b1561081257565b60646040517f08c379a000000000000000000000000000000000000000000000000000000000815260206004820152601460248201527f496e73756666696369656e742062616c616e63650000000000000000000000006044820152fd5b9190820391821161087d57565b7f4e487b71000000000000000000000000000000000000000000000000000000005f52601160045260245ffd5b9190820180921161087d57565b156108be57565b60646040517f08c379a000000000000000000000000000000000000000000000000000000000815260206004820152601460248201527f4f6e6c79206d61726b65742063616e2063616c6c0000000000000000000000006044820152fdfea164736f6c634300081e000a","linkReferences":{}},"methodIdentifiers":{"allowance(address,address)":"dd62ed3e","approve(address,uint256)":"095ea7b3","balanceOf(address)":"70a08231","burn(address,uint256)":"9dc29fac","decimals()":"313ce567","market()":"80f55605","mint(address,uint256)":"40c10f19","symbol()":"95d89b41","totalSupply()":"18160ddd","transfer(address,uint256)":"a9059cbb","transferFrom(address,address,uint256)":"23b872dd"},"id":24}