{"abi":[{"type":"constructor","inputs":[{"name":"_marketIndex","type":"uint256","internalType":"uint256"},{"name":"_endTime","type":"uint256","internalType":"uint256"},{"name":"_creator","type":"address","internalType":"address"},{"name":"_yesAmount","type":"uint256","internalType":"uint256"},{"name":"_noAmount","type":"uint256","internalType":"uint256"},{"name":"_creatorChoice","type":"uint8","internalType":"enum Market.Outcome"}],"stateMutability":"payable"},{"type":"function","name":"acceptChallenge","inputs":[],"outputs":[],"stateMutability":"payable"},{"type":"function","name":"buyNo","inputs":[],"outputs":[],"stateMutability":"payable"},{"type":"function","name":"buyYes","inputs":[],"outputs":[],"stateMutability":"payable"},{"type":"function","name":"claim","inputs":[],"outputs":[],"stateMutability":"nonpayable"},{"type":"function","name":"creator","inputs":[],"outputs":[{"name":"","type":"address","internalType":"address"}],"stateMutability":"view"},{"type":"function","name":"creatorChoice","inputs":[],"outputs":[{"name":"","type":"uint8","internalType":"enum Market.Outcome"}],"stateMutability":"view"},{"type":"function","name":"endTime","inputs":[],"outputs":[{"name":"","type":"uint256","internalType":"uint256"}],"stateMutability":"view"},{"type":"function","name":"initialNoAmount","inputs":[],"outputs":[{"name":"","type":"uint256","internalType":"uint256"}],"stateMutability":"view"},{"type":"function","name":"initialYesAmount","inputs":[],"outputs":[{"name":"","type":"uint256","internalType":"uint256"}],"stateMutability":"view"},{"type":"function","name":"marketIndex","inputs":[],"outputs":[{"name":"","type":"uint256","internalType":"uint256"}],"stateMutability":"view"},{"type":"function","name":"marketState","inputs":[],"outputs":[{"name":"","type":"uint8","internalType":"enum Market.MarketState"}],"stateMutability":"view"},{"type":"function","name":"noPool","inputs":[],"outputs":[{"name":"","type":"uint256","internalType":"uint256"}],"stateMutability":"view"},{"type":"function","name":"noStake","inputs":[{"name":"","type":"address","internalType":"address"}],"outputs":[{"name":"","type":"uint256","internalType":"uint256"}],"stateMutability":"view"},{"type":"function","name":"outcome","inputs":[],"outputs":[{"name":"","type":"uint8","internalType":"enum Market.Outcome"}],"stateMutability":"view"},{"type":"function","name":"resolveWithAI","inputs":[{"name":"o","type":"uint8","internalType":"enum Market.Outcome"},{"name":"reasoning","type":"string","internalType":"string"}],"outputs":[],"stateMutability":"nonpayable"},{"type":"function","name":"resolver","inputs":[],"outputs":[{"name":"","type":"address","internalType":"address"}],"stateMutability":"view"},{"type":"function","name":"yesPool","inputs":[],"outputs":[{"name":"","type":"uint256","internalType":"uint256"}],"stateMutability":"view"},{"type":"function","name":"yesStake","inputs":[{"name":"","type":"address","internalType":"address"}],"outputs":[{"name":"","type":"uint256","internalType":"uint256"}],"stateMutability":"view"},{"type":"event","name":"AIResolution","inputs":[{"name":"resolver","type":"address","indexed":true,"internalType":"address"},{"name":"outcome","type":"uint8","indexed":false,"internalType":"enum Market.Outcome"},{"name":"reasoning","type":"string","indexed":false,"internalType":"string"}],"anonymous":false}],"bytecode":{"object":"0x60806040525f5f5f6101000a81548160ff0219169083600281111561002757610026610362565b5b02179055505f60085f6101000a81548160ff021916908360028111156100505761004f610362565b5b021790555060405161214638038061214683398181016040528101906100769190610443565b5f8311801561008457505f82115b6100c3576040517f08c379a00000000000000000000000000000000000000000000000000000000081526004016100ba90610526565b60405180910390fd5b600160028111156100d7576100d6610362565b5b8160028111156100ea576100e9610362565b5b1480610119575060028081111561010457610103610362565b5b81600281111561011757610116610362565b5b145b610158576040517f08c379a000000000000000000000000000000000000000000000000000000000815260040161014f9061058e565b60405180910390fd5b6001600281111561016c5761016b610362565b5b81600281111561017f5761017e610362565b5b1461018a578161018c565b825b34146101cd576040517f08c379a00000000000000000000000000000000000000000000000000000000081526004016101c4906105f6565b60405180910390fd5b85600781905550846001819055508360025f6101000a81548173ffffffffffffffffffffffffffffffffffffffff021916908373ffffffffffffffffffffffffffffffffffffffff16021790555083600860016101000a81548173ffffffffffffffffffffffffffffffffffffffff021916908373ffffffffffffffffffffffffffffffffffffffff1602179055508260098190555081600a8190555080600b5f6101000a81548160ff0219169083600281111561028e5761028d610362565b5b0217905550600160028111156102a7576102a6610362565b5b8160028111156102ba576102b9610362565b5b0361030d573460055f8673ffffffffffffffffffffffffffffffffffffffff1673ffffffffffffffffffffffffffffffffffffffff1681526020019081526020015f208190555034600381905550610357565b3460065f8673ffffffffffffffffffffffffffffffffffffffff1673ffffffffffffffffffffffffffffffffffffffff1681526020019081526020015f2081905550346004819055505b505050505050610614565b7f4e487b71000000000000000000000000000000000000000000000000000000005f52602160045260245ffd5b5f5ffd5b5f819050919050565b6103a581610393565b81146103af575f5ffd5b50565b5f815190506103c08161039c565b92915050565b5f73ffffffffffffffffffffffffffffffffffffffff82169050919050565b5f6103ef826103c6565b9050919050565b6103ff816103e5565b8114610409575f5ffd5b50565b5f8151905061041a816103f6565b92915050565b6003811061042c575f5ffd5b50565b5f8151905061043d81610420565b92915050565b5f5f5f5f5f5f60c0878903121561045d5761045c61038f565b5b5f61046a89828a016103b2565b965050602061047b89828a016103b2565b955050604061048c89828a0161040c565b945050606061049d89828a016103b2565b93505060806104ae89828a016103b2565b92505060a06104bf89828a0161042f565b9150509295509295509295565b5f82825260208201905092915050565b7f616d6f756e7473206d75737420626520706f73697469766500000000000000005f82015250565b5f6105106018836104cc565b915061051b826104dc565b602082019050919050565b5f6020820190508181035f83015261053d81610504565b9050919050565b7f696e76616c69642063726561746f722063686f696365000000000000000000005f82015250565b5f6105786016836104cc565b915061058382610544565b602082019050919050565b5f6020820190508181035f8301526105a58161056c565b9050919050565b7f696e636f72726563742045544820616d6f756e740000000000000000000000005f82015250565b5f6105e06014836104cc565b91506105eb826105ac565b602082019050919050565b5f6020820190508181035f83015261060d816105d4565b9050919050565b611b25806106215f395ff3fe608060405260043610610108575f3560e01c80636f1d4ea4116100945780639efa00ca116100635780639efa00ca1461031c578063a3b5afb114610346578063a9709c0c14610370578063b166bf6b1461037a578063f2fd6f541461038457610108565b80636f1d4ea4146102825780638c7adc15146102ac57806395e5dd07146102d65780639e0754491461031257610108565b80633197cbb6116100db5780633197cbb6146101b45780634095ba25146101de5780634a0332a0146102085780634e71d92d1461024457806363cea3731461025a57610108565b806302d05d3f1461010c57806304f3bcec1461013657806308fb1b771461016057806327793f871461018a575b5f5ffd5b348015610117575f5ffd5b506101206103ae565b60405161012d919061103a565b60405180910390f35b348015610141575f5ffd5b5061014a6103d4565b604051610157919061103a565b60405180910390f35b34801561016b575f5ffd5b506101746103f9565b60405161018191906110c6565b60405180910390f35b348015610195575f5ffd5b5061019e61040b565b6040516101ab9190611125565b60405180910390f35b3480156101bf575f5ffd5b506101c861041c565b6040516101d59190611156565b60405180910390f35b3480156101e9575f5ffd5b506101f2610422565b6040516101ff9190611125565b60405180910390f35b348015610213575f5ffd5b5061022e600480360381019061022991906111aa565b610434565b60405161023b9190611156565b60405180910390f35b34801561024f575f5ffd5b50610258610449565b005b348015610265575f5ffd5b50610280600480360381019061027b9190611334565b61077e565b005b34801561028d575f5ffd5b506102966109f2565b6040516102a39190611156565b60405180910390f35b3480156102b7575f5ffd5b506102c06109f8565b6040516102cd9190611156565b60405180910390f35b3480156102e1575f5ffd5b506102fc60048036038101906102f791906111aa565b6109fe565b6040516103099190611156565b60405180910390f35b61031a610a13565b005b348015610327575f5ffd5b50610330610bb7565b60405161033d9190611156565b60405180910390f35b348015610351575f5ffd5b5061035a610bbd565b6040516103679190611156565b60405180910390f35b610378610bc3565b005b610382610d67565b005b34801561038f575f5ffd5b50610398610ff5565b6040516103a59190611156565b60405180910390f35b600860019054906101000a900473ffffffffffffffffffffffffffffffffffffffff1681565b60025f9054906101000a900473ffffffffffffffffffffffffffffffffffffffff1681565b60085f9054906101000a900460ff1681565b5f5f9054906101000a900460ff1681565b60015481565b600b5f9054906101000a900460ff1681565b6006602052805f5260405f205f915090505481565b5f600281111561045c5761045b611053565b5b5f5f9054906101000a900460ff16600281111561047c5761047b611053565b5b036104bc576040517f08c379a00000000000000000000000000000000000000000000000000000000081526004016104b3906113e8565b60405180910390fd5b5f6004546003546104cd9190611433565b90505f600160028111156104e4576104e3611053565b5b5f5f9054906101000a900460ff16600281111561050457610503611053565b5b036105ef575f60055f3373ffffffffffffffffffffffffffffffffffffffff1673ffffffffffffffffffffffffffffffffffffffff1681526020019081526020015f205490505f811161058c576040517f08c379a0000000000000000000000000000000000000000000000000000000008152600401610583906114b0565b60405180910390fd5b600354818461059b91906114ce565b6105a5919061153c565b91505f60055f3373ffffffffffffffffffffffffffffffffffffffff1673ffffffffffffffffffffffffffffffffffffffff1681526020019081526020015f2081905550506106d1565b5f60065f3373ffffffffffffffffffffffffffffffffffffffff1673ffffffffffffffffffffffffffffffffffffffff1681526020019081526020015f205490505f8111610672576040517f08c379a0000000000000000000000000000000000000000000000000000000008152600401610669906114b0565b60405180910390fd5b600454818461068191906114ce565b61068b919061153c565b91505f60065f3373ffffffffffffffffffffffffffffffffffffffff1673ffffffffffffffffffffffffffffffffffffffff1681526020019081526020015f2081905550505b5f3373ffffffffffffffffffffffffffffffffffffffff16826040516106f690611599565b5f6040518083038185875af1925050503d805f8114610730576040519150601f19603f3d011682016040523d82523d5f602084013e610735565b606091505b5050905080610779576040517f08c379a0000000000000000000000000000000000000000000000000000000008152600401610770906115f7565b60405180910390fd5b505050565b5f600281111561079157610790611053565b5b5f5f9054906101000a900460ff1660028111156107b1576107b0611053565b5b146107f1576040517f08c379a00000000000000000000000000000000000000000000000000000000081526004016107e89061165f565b60405180910390fd5b603c6001546108009190611433565b421015610842576040517f08c379a0000000000000000000000000000000000000000000000000000000008152600401610839906116ed565b60405180910390fd5b6001600281111561085657610855611053565b5b82600281111561086957610868611053565b5b1480610898575060028081111561088357610882611053565b5b82600281111561089657610895611053565b5b145b6108d7576040517f08c379a00000000000000000000000000000000000000000000000000000000081526004016108ce90611755565b60405180910390fd5b600160028111156108eb576108ea611053565b5b60085f9054906101000a900460ff16600281111561090c5761090b611053565b5b1461094c576040517f08c379a0000000000000000000000000000000000000000000000000000000008152600401610943906117bd565b60405180910390fd5b815f5f6101000a81548160ff0219169083600281111561096f5761096e611053565b5b0217905550600260085f6101000a81548160ff0219169083600281111561099957610998611053565b5b02179055503373ffffffffffffffffffffffffffffffffffffffff167f6f66e6e4c1c82bc4fe8b2c1d4632aea0cb0ee31b80e9c375428f1becf47a07c783836040516109e692919061182b565b60405180910390a25050565b60035481565b60075481565b6005602052805f5260405f205f915090505481565b5f6002811115610a2657610a25611053565b5b5f5f9054906101000a900460ff166002811115610a4657610a45611053565b5b148015610a54575060015442105b610a93576040517f08c379a0000000000000000000000000000000000000000000000000000000008152600401610a8a906118a3565b60405180910390fd5b60016002811115610aa757610aa6611053565b5b60085f9054906101000a900460ff166002811115610ac857610ac7611053565b5b14610b08576040517f08c379a0000000000000000000000000000000000000000000000000000000008152600401610aff9061190b565b60405180910390fd5b5f3411610b4a576040517f08c379a0000000000000000000000000000000000000000000000000000000008152600401610b4190611973565b60405180910390fd5b3460055f3373ffffffffffffffffffffffffffffffffffffffff1673ffffffffffffffffffffffffffffffffffffffff1681526020019081526020015f205f828254610b969190611433565b925050819055503460035f828254610bae9190611433565b92505081905550565b60095481565b60045481565b5f6002811115610bd657610bd5611053565b5b5f5f9054906101000a900460ff166002811115610bf657610bf5611053565b5b148015610c04575060015442105b610c43576040517f08c379a0000000000000000000000000000000000000000000000000000000008152600401610c3a906118a3565b60405180910390fd5b60016002811115610c5757610c56611053565b5b60085f9054906101000a900460ff166002811115610c7857610c77611053565b5b14610cb8576040517f08c379a0000000000000000000000000000000000000000000000000000000008152600401610caf9061190b565b60405180910390fd5b5f3411610cfa576040517f08c379a0000000000000000000000000000000000000000000000000000000008152600401610cf190611973565b60405180910390fd5b3460065f3373ffffffffffffffffffffffffffffffffffffffff1673ffffffffffffffffffffffffffffffffffffffff1681526020019081526020015f205f828254610d469190611433565b925050819055503460045f828254610d5e9190611433565b92505081905550565b5f6002811115610d7a57610d79611053565b5b60085f9054906101000a900460ff166002811115610d9b57610d9a611053565b5b14610ddb576040517f08c379a0000000000000000000000000000000000000000000000000000000008152600401610dd2906119db565b60405180910390fd5b5f60016002811115610df057610def611053565b5b600b5f9054906101000a900460ff166002811115610e1157610e10611053565b5b14610e1e57600954610e22565b600a545b9050803414610e66576040517f08c379a0000000000000000000000000000000000000000000000000000000008152600401610e5d90611a43565b60405180910390fd5b600860019054906101000a900473ffffffffffffffffffffffffffffffffffffffff1673ffffffffffffffffffffffffffffffffffffffff163373ffffffffffffffffffffffffffffffffffffffff1603610ef6576040517f08c379a0000000000000000000000000000000000000000000000000000000008152600401610eed90611ad1565b60405180910390fd5b60016002811115610f0a57610f09611053565b5b600b5f9054906101000a900460ff166002811115610f2b57610f2a611053565b5b03610f7e573460065f3373ffffffffffffffffffffffffffffffffffffffff1673ffffffffffffffffffffffffffffffffffffffff1681526020019081526020015f208190555034600481905550610fc8565b3460055f3373ffffffffffffffffffffffffffffffffffffffff1673ffffffffffffffffffffffffffffffffffffffff1681526020019081526020015f2081905550346003819055505b600160085f6101000a81548160ff02191690836002811115610fed57610fec611053565b5b021790555050565b600a5481565b5f73ffffffffffffffffffffffffffffffffffffffff82169050919050565b5f61102482610ffb565b9050919050565b6110348161101a565b82525050565b5f60208201905061104d5f83018461102b565b92915050565b7f4e487b71000000000000000000000000000000000000000000000000000000005f52602160045260245ffd5b6003811061109157611090611053565b5b50565b5f8190506110a182611080565b919050565b5f6110b082611094565b9050919050565b6110c0816110a6565b82525050565b5f6020820190506110d95f8301846110b7565b92915050565b600381106110f0576110ef611053565b5b50565b5f819050611100826110df565b919050565b5f61110f826110f3565b9050919050565b61111f81611105565b82525050565b5f6020820190506111385f830184611116565b92915050565b5f819050919050565b6111508161113e565b82525050565b5f6020820190506111695f830184611147565b92915050565b5f604051905090565b5f5ffd5b5f5ffd5b6111898161101a565b8114611193575f5ffd5b50565b5f813590506111a481611180565b92915050565b5f602082840312156111bf576111be611178565b5b5f6111cc84828501611196565b91505092915050565b600381106111e1575f5ffd5b50565b5f813590506111f2816111d5565b92915050565b5f5ffd5b5f5ffd5b5f601f19601f8301169050919050565b7f4e487b71000000000000000000000000000000000000000000000000000000005f52604160045260245ffd5b61124682611200565b810181811067ffffffffffffffff8211171561126557611264611210565b5b80604052505050565b5f61127761116f565b9050611283828261123d565b919050565b5f67ffffffffffffffff8211156112a2576112a1611210565b5b6112ab82611200565b9050602081019050919050565b828183375f83830152505050565b5f6112d86112d384611288565b61126e565b9050828152602081018484840111156112f4576112f36111fc565b5b6112ff8482856112b8565b509392505050565b5f82601f83011261131b5761131a6111f8565b5b813561132b8482602086016112c6565b91505092915050565b5f5f6040838503121561134a57611349611178565b5b5f611357858286016111e4565b925050602083013567ffffffffffffffff8111156113785761137761117c565b5b61138485828601611307565b9150509250929050565b5f82825260208201905092915050565b7f6e6f74207265736f6c76656400000000000000000000000000000000000000005f82015250565b5f6113d2600c8361138e565b91506113dd8261139e565b602082019050919050565b5f6020820190508181035f8301526113ff816113c6565b9050919050565b7f4e487b71000000000000000000000000000000000000000000000000000000005f52601160045260245ffd5b5f61143d8261113e565b91506114488361113e565b92508282019050808211156114605761145f611406565b5b92915050565b7f6e6f207374616b650000000000000000000000000000000000000000000000005f82015250565b5f61149a60088361138e565b91506114a582611466565b602082019050919050565b5f6020820190508181035f8301526114c78161148e565b9050919050565b5f6114d88261113e565b91506114e38361113e565b92508282026114f18161113e565b9150828204841483151761150857611507611406565b5b5092915050565b7f4e487b71000000000000000000000000000000000000000000000000000000005f52601260045260245ffd5b5f6115468261113e565b91506115518361113e565b9250826115615761156061150f565b5b828204905092915050565b5f81905092915050565b50565b5f6115845f8361156c565b915061158f82611576565b5f82019050919050565b5f6115a382611579565b9150819050919050565b7f78666572206661696c00000000000000000000000000000000000000000000005f82015250565b5f6115e160098361138e565b91506115ec826115ad565b602082019050919050565b5f6020820190508181035f83015261160e816115d5565b9050919050565b7f616c7265616479207265736f6c766564000000000000000000000000000000005f82015250565b5f61164960108361138e565b915061165482611615565b602082019050919050565b5f6020820190508181035f8301526116768161163d565b9050919050565b7f6d75737420776169742031206d696e757465206166746572206d61726b6574205f8201527f656e647300000000000000000000000000000000000000000000000000000000602082015250565b5f6116d760248361138e565b91506116e28261167d565b604082019050919050565b5f6020820190508181035f830152611704816116cb565b9050919050565b7f696e76616c6964206f7574636f6d6500000000000000000000000000000000005f82015250565b5f61173f600f8361138e565b915061174a8261170b565b602082019050919050565b5f6020820190508181035f83015261176c81611733565b9050919050565b7f6d61726b6574206d7573742062652061637469766520746f207265736f6c76655f82015250565b5f6117a760208361138e565b91506117b282611773565b602082019050919050565b5f6020820190508181035f8301526117d48161179b565b9050919050565b5f81519050919050565b8281835e5f83830152505050565b5f6117fd826117db565b611807818561138e565b93506118178185602086016117e5565b61182081611200565b840191505092915050565b5f60408201905061183e5f830185611116565b818103602083015261185081846117f3565b90509392505050565b7f636c6f73656400000000000000000000000000000000000000000000000000005f82015250565b5f61188d60068361138e565b915061189882611859565b602082019050919050565b5f6020820190508181035f8301526118ba81611881565b9050919050565b7f6d61726b6574206e6f74206163746976650000000000000000000000000000005f82015250565b5f6118f560118361138e565b9150611900826118c1565b602082019050919050565b5f6020820190508181035f830152611922816118e9565b9050919050565b7f6e6f2076616c75650000000000000000000000000000000000000000000000005f82015250565b5f61195d60088361138e565b915061196882611929565b602082019050919050565b5f6020820190508181035f83015261198a81611951565b9050919050565b7f6e6f742077616974696e6720666f72206f70706f6e656e7400000000000000005f82015250565b5f6119c560188361138e565b91506119d082611991565b602082019050919050565b5f6020820190508181035f8301526119f2816119b9565b9050919050565b7f6d757374206d6174636820657861637420726571756972656420616d6f756e745f82015250565b5f611a2d60208361138e565b9150611a38826119f9565b602082019050919050565b5f6020820190508181035f830152611a5a81611a21565b9050919050565b7f63726561746f722063616e6e6f7420616363657074206f776e206368616c6c655f8201527f6e67650000000000000000000000000000000000000000000000000000000000602082015250565b5f611abb60238361138e565b9150611ac682611a61565b604082019050919050565b5f6020820190508181035f830152611ae881611aaf565b905091905056fea2646970667358221220406ea5cefc9f8d5addb7d771d90f09f6ec88865f388b786e7541bef20e848bb664736f6c634300081e0033","linkReferences":{}},"methodIdentifiers":{"acceptChallenge()":"b166bf6b","buyNo()":"a9709c0c","buyYes()":"9e075449","claim()":"4e71d92d","creator()":"02d05d3f","creatorChoice()":"4095ba25","endTime()":"3197cbb6","initialNoAmount()":"f2fd6f54","initialYesAmount()":"9efa00ca","marketIndex()":"8c7adc15","marketState()":"08fb1b77","noPool()":"a3b5afb1","noStake(address)":"4a0332a0","outcome()":"27793f87","resolveWithAI(uint8,string)":"63cea373","resolver()":"04f3bcec","yesPool()":"6f1d4ea4","yesStake(address)":"95e5dd07"},"id":21}